:1000000000000120910100000D020000AF47000038
:1000100011020000130200001502000000000000A1
:1000200000000000000000000000000017020000B7
:1000300019020000000000001B0200001D02000069
:10004000753A00007D3A0000853A00008D3A0000C4
:10005000953A00009D3A0000A53A0000AD3A000034
:10006000B53A0000BD3A0000C53A0000CD3A0000A4
:10007000D53A0000DD3A0000E53A0000ED3A000014
:10008000F53A0000FD3A0000053B00000D3B000082
:10009000153B00001D3B0000253B00002D3B0000F0
:1000A000353B00003D3B0000453B00004D3B000060
:1000B000553B00005D3B0000653B00006D3B0000D0
:1000C000753B0000A9240000852500007D3B000051
:1000D000853B00008D3B0000953B00009D3B0000F0
:1000E000A53B0000AD3B0000A10400007906000024
:1000F000A1070000B53B0000BD3B0000C53B000070
:10010000CD3B0000D53B0000DD3B0000E53B00009F
:10011000ED3B0000F53B0000FD3B0000053C00000E
:100120000D3C0000153C00001D3C0000253C00007B
:100130002D3C0000353C00003D3C0000453C0000EB
:100140004D3C0000553C00005D3C0000653C00005B
:100150006D3C0000753C00007D3C0000C9080000BB
:10016000853C00008D3C0000384F0000000000205E
:100170000C000000384F00000000FF1F00000000CE
:100180000C000020E40400000000FF1F000000003D
:1001900010B572B602F012FD0D4B07E003F10C042E
:1001A0009A685968186800F019F82346094A93427A
:1001B000F4D306E01C46596854F8080B00F01DF80B
:1001C0002346054A9342F5D362B604F0E9FBFEE705
:1001D00068010000800100009001000000239342AC
:1001E0000AD210B450F8044B41F8044B0433934244
:1001F000F8D35DF8044B7047704700238B4204D25C
:10020000002240F8042B0433F8E77047FEE7FEE7CE
:10021000FEE7FEE7FEE7FEE7FEE7FEE7FEE7FEE7B6
:10022000FFFFFFFFFFFFFFFFFFFFFFFFFFFFFFFFDE
:10023000FFFFFFFFFFFFFFFFFFFFFFFFFFFFFFFFCE
:10024000FFFFFFFFFFFFFFFFFFFFFFFFFFFFFFFFBE
:10025000FFFFFFFFFFFFFFFFFFFFFFFFFFFFFFFFAE
:10026000FFFFFFFFFFFFFFFFFFFFFFFFFFFFFFFF9E
:10027000FFFFFFFFFFFFFFFFFFFFFFFFFFFFFFFF8E
:10028000FFFFFFFFFFFFFFFFFFFFFFFFFFFFFFFF7E
:10029000FFFFFFFFFFFFFFFFFFFFFFFFFFFFFFFF6E
:1002A000FFFFFFFFFFFFFFFFFFFFFFFFFFFFFFFF5E
:1002B000FFFFFFFFFFFFFFFFFFFFFFFFFFFFFFFF4E
:1002C000FFFFFFFFFFFFFFFFFFFFFFFFFFFFFFFF3E
:1002D000FFFFFFFFFFFFFFFFFFFFFFFFFFFFFFFF2E
:1002E000FFFFFFFFFFFFFFFFFFFFFFFFFFFFFFFF1E
:1002F000FFFFFFFFFFFFFFFFFFFFFFFFFFFFFFFF0E
:10030000FFFFFFFFFFFFFFFFFFFFFFFFFFFFFFFFFD
:10031000FFFFFFFFFFFFFFFFFFFFFFFFFFFFFFFFED
:10032000FFFFFFFFFFFFFFFFFFFFFFFFFFFFFFFFDD
:10033000FFFFFFFFFFFFFFFFFFFFFFFFFFFFFFFFCD
:10034000FFFFFFFFFFFFFFFFFFFFFFFFFFFFFFFFBD
:10035000FFFFFFFFFFFFFFFFFFFFFFFFFFFFFFFFAD
:10036000FFFFFFFFFFFFFFFFFFFFFFFFFFFFFFFF9D
:10037000FFFFFFFFFFFFFFFFFFFFFFFFFFFFFFFF8D
:10038000FFFFFFFFFFFFFFFFFFFFFFFFFFFFFFFF7D
:10039000FFFFFFFFFFFFFFFFFFFFFFFFFFFFFFFF6D
:1003A000FFFFFFFFFFFFFFFFFFFFFFFFFFFFFFFF5D
:1003B000FFFFFFFFFFFFFFFFFFFFFFFFFFFFFFFF4D
:1003C000FFFFFFFFFFFFFFFFFFFFFFFFFFFFFFFF3D
:1003D000FFFFFFFFFFFFFFFFFFFFFFFFFFFFFFFF2D
:1003E000FFFFFFFFFFFFFFFFFFFFFFFFFFFFFFFF1D
:1003F000FFFFFFFFFFFFFFFFFFFFFFFFFFFFFFFF0D
:10040000FFFFFFFFFFFFFFFFFFFFFFFFFEFFFFFFFD
:1004100080B483B000AF0346FB7197F90730002B1F
:100420000BDBFB7903F01F02074997F907305B09E3
:10043000012000FA02F241F8232000BF0C37BD462C
:100440005DF8047B704700BF00E100E080B483B03A
:1004500000AF03463960FB7197F90730002B0ADBC8
:100460003B68DAB20C4997F907301201D2B20B445B
:1004700083F800230AE03B68DAB20849FB7903F00D
:100480000F03043B1201D2B20B441A7600BF0C37A3
:10049000BD465DF8047B704700E100E000ED00E040
:1004A00080B500AF244BDB6803F0C003C02B01D143
:1004B00003F0F0FB204B5B6903F0C003C02B01D1BC
:1004C00003F0E8FB1C4BDB6903F0C003C02B01D138
:1004D00003F0E0FB184B5B6A03F0C003C02B01D1B3
:1004E00003F0D8FB144BDB6A03F0C003C02B01D12F
:1004F00003F0D0FB104B5B6B03F0C003C02B01D1AA
:1005000003F0C8FB0C4BDB6B03F0C003C02B01D125
:1005100003F0C0FB084B5B6C03F0C003C02B01D1A0
:1005200003F0B8FB044B1B6803F0C003C02B01D1E0
:1005300003F0B0FB00BF80BD0080034080B500AF7A
:10054000274B03F581531C331B68254943F0807208
:1005500001F581531C331A60224B4FF6FE729A60EC
:10056000204B08221A601F4B0022DA601D4B00222C
:100570001A611C4B24225A611A4B4FF6FF729A6182
:10058000184B2422DA61174B4FF6FF721A62154B93
:1005900000225A62134B00229A62124B2422DA6222
:1005A000104B00221A630F4B24225A630D4B00227A
:1005B0009A630C4B2422DA630A4B4FF6FF721A64DB
:1005C000084B24225A64074B4FF6FF729A640821A5
:1005D0002A20FFF73BFF2A20FFF71AFF00BF80BD4C
:1005E000007004400080034080B483B000AF034635
:1005F000FB7197F90730002B0BDBFB7903F01F022F
:10060000074997F907305B09012000FA02F241F827
:10061000232000BF0C37BD465DF8047B704700BF48
:1006200000E100E080B483B000AF03463960FB71A5
:1006300097F90730002B0ADB3B68DAB20C4997F9CF
:1006400007301201D2B20B4483F800230AE03B6862
:10065000DAB20849FB7903F00F03043B1201D2B26E
:100660000B441A7600BF0C37BD465DF8047B70471B
:1006700000E100E000ED00E080B500AF0C4BDB686E
:1006800003F0C003C02B01D100F018FB084B5B69DD
:1006900003F0C003C02B01D103F004FB044B1B6823
:1006A00003F0C003C02B01D100F03EFB00BF80BDB2
:1006B0000090034080B500AF134B03F581531C330A
:1006C0001B68114943F0007201F581531C331A6015
:1006D0000E4B40F257229A600C4B08221A600B4BCB
:1006E0004C22DA60094B00221A61084B00225A6141
:1006F000064B00229A6108212B20FFF793FF2B2045
:10070000FFF772FF00BF80BD0070044000900340FF
:1007100080B483B000AF0346FB7197F90730002B1C
:100720000BDBFB7903F01F02074997F907305B09E0
:10073000012000FA02F241F8232000BF0C37BD4629
:100740005DF8047B704700BF00E100E080B483B037
:1007500000AF03463960FB7197F90730002B0ADBC5
:100760003B68DAB20C4997F907301201D2B20B4458
:1007700083F800230AE03B68DAB20849FB7903F00A
:100780000F03043B1201D2B20B441A7600BF0C37A0
:10079000BD465DF8047B704700E100E000ED00E03D
:1007A00080B500AF0C4BDB6803F0C003C02B01D158
:1007B00003F080FA084B5B6903F0C003C02B01D142
:1007C00001F0E4FD044B1B6803F0C003C02B01D112
:1007D00003F070FA00BF80BD00A0034080B500AFF9
:1007E000134B03F581531C331B68114943F080629E
:1007F00001F581531C331A600E4B4FF6FF729A605D
:100800000C4B12221A600B4B0022DA60094B0022BB
:100810001A61084B18225A61064B00229A6108217E
:100820002C20FFF793FF2C20FFF772FF00BF80BD45
:100830000070044000A0034080B483B000AF0346C2
:10084000FB7197F90730002B0BDBFB7903F01F02DC
:10085000074997F907305B09012000FA02F241F8D5
:10086000232000BF0C37BD465DF8047B704700BFF6
:1008700000E100E080B483B000AF03463960FB7153
:1008800097F90730002B0ADB3B68DAB20C4997F97D
:1008900007301201D2B20B4483F800230AE03B6810
:1008A000DAB20849FB7903F00F03043B1201D2B21C
:1008B0000B441A7600BF0C37BD465DF8047B7047C9
:1008C00000E100E000ED00E080B500AF244BDB6804
:1008D00003F0C003C02B01D103F0F4F9204B5B6996
:1008E00003F0C003C02B01D103F0ECF91C4BDB6912
:1008F00003F0C003C02B01D103F0E4F9184B5B6A8D
:1009000003F0C003C02B01D103F0DCF9144BDB6A08
:1009100003F0C003C02B01D103F0D4F9104B5B6B83
:1009200003F0C003C02B01D103F0CCF90C4BDB6BFF
:1009300003F0C003C02B01D103F0C4F9084B5B6C7A
:1009400003F0C003C02B01D103F0BCF9044B1B68BA
:1009500003F0C003C02B01D103F0B4F900BF80BD88
:100960000060024080B500AF284B03F581531C3373
:100970001B68264943F0400201F581531C331A607D
:10098000234B4FF6FF729A60214B08221A60204BCE
:100990002422DA601E4B4FF6FF721A611C4B242290
:1009A0005A611B4B4FF6FF729A61194B2422DA6190
:1009B000174B4FF6FF721A62154B24225A62144BE2
:1009C00000229A62124B0022DA62114B00221A6353
:1009D0000F4B24225A630E4B4FF6FF729A630C4B57
:1009E0002422DA630A4B4FF6FF721A64084B242262
:1009F0005A64074B4FF6FF729A6408214720FFF7AD
:100A000039FF4720FFF718FF00BF80BD007004408A
:100A10000060024090B583B000AF0346FB71FB79E4
:100A2000002B03D1134B00229A621FE0FB7907EEE3
:100A3000903AB8EE677ADFED106AC6EE877A9FEDDE
:100A40000F7AC7EE276A16EE900A02F0F7FF024609
:100A50000B4643EC102B02F0C3FB53EC102B054C60
:100A60001046194604F08BF90346A36200BF0C3709
:100A7000BD4690BD0060024000007F4300FF7F47FD
:100A800090B583B000AF0346FB71FB79002B03D117
:100A9000134B00221A631FE0FB7907EE903AB8EE81
:100AA000677ADFED106AC6EE877A9FED0F7AC7EEA0
:100AB000276A16EE900A02F0C1FF02460B4643EC8D
:100AC000102B02F08DFB53EC102B054C10461946F1
:100AD00004F055F90346236300BF0C37BD4690BDB3
:100AE0000080034000007F4300FE7F4790B583B045
:100AF00000AF0346FB71FB79002B03D1134B00229F
:100B00009A631FE0FB7907EE903AB8EE677ADFED63
:100B1000106AC6EE877A9FED0F7AC7EE276A16EE47
:100B2000900A02F08BFF02460B4643EC102B02F0BA
:100B300057FB53EC102B054C1046194604F01FF9D7
:100B40000346A36300BF0C37BD4690BD0080034041
:100B500000007F4300FE7F4780B500AF0D210548B0
:100B600003F0C5F80346002B01D0002300E0012369
:100B7000184680BD00F00F4080B500AF0721054842
:100B800003F0C7F80346002B14BF01230023DBB298
:100B9000184680BDC0F00F4080B500AF0021054869
:100BA00003F0B7F80346002B14BF01230023DBB288
:100BB000184680BD00F10F4080B500AF0121054807
:100BC00003F0A7F80346002B14BF01230023DBB278
:100BD000184680BD00F10F4080B400AF054B1B6884
:100BE000044A23F04003136000BFBD465DF8047B58
:100BF000704700BF0090034080B400AF054B1B68F6
:100C0000044A43F04003136000BFBD465DF8047B17
:100C1000704700BF0090034080B584B000AF03462A
:100C2000FB711F4B00221A701E4B00221A701E4BC4
:100C300000221A701D4B00221A60FFF7DDFFFB79BE
:100C4000012B02D0022B06D00BE001220021184814
:100C500003F071F805E001220121154803F06BF85B
:100C600000BF00BF104B1B7883F00103DBB2002BE9
:100C7000F8D10B4B1B78002B01D000230CE00D4B5F
:100C80001B684FF4AA7202FB03F35B08FB60FB686E
:100C9000094AA2FB03235B0918461037BD4680BDF5
:100CA000EE040020EC040020ED0400200C000020E5
:100CB00040F00F40140000201F85EB5180B500AFBD
:100CC000134B1B7883F00103DBB2002B07D0114BD1
:100CD0001B68114A13600E4B01221A700FE00C4B77
:100CE0001B78002B0BD00B4B1A680B4B1B68D31ACD
:100CF0000A4A1360FFF770FF094B01221A70094B73
:100D0000DB68084A23F08003D36000BF80BD00BFCA
:100D1000EC0400200C000020100000201400002033
:100D2000ED0400200090034080B500AF134B1B681A
:100D3000022B09D100220021114802F0FCFF002201
:100D400001210F4802F0F7FF0C4B1B6801330B4ADF
:100D500013600A4B1B6847F22F52934205D9094B87
:100D600001221A70084B01221A70084B1B68074AAF
:100D700023F08003136000BF80BD00BF0C00002083
:100D800040F00F40EE040020ED04002000900340EE
:100D900080B582B000AF094A3B4692E80300186074
:100DA0000433198002330A0C1A703B46184603F0CC
:100DB0009EFC00BF0837BD4680BD00BF644E0000EA
:100DC00080B582B000AF78607B681B78392B77DC08
:100DD000032BC0F2C580033B362B00F2C18001A279
:100DE00052F823F0DF0E0000610F0000E70E000054
:100DF000610F0000610F0000610F0000EF0E0000A6
:100E0000610F0000F70E0000610F0000610F00008D
:100E1000610F0000610F0000610F0000610F000012
:100E2000610F0000610F0000610F0000FF0E000065
:100E3000070F0000170F00000F0F0000610F0000E8
:100E4000610F0000330F00003B0F0000430F000054
:100E50004B0F0000610F0000610F0000610F0000E8
:100E6000610F0000610F0000610F0000610F0000C2
:100E7000610F0000610F0000610F0000610F0000B2
:100E8000610F0000610F0000610F00001F0F0000E4
:100E9000610F0000610F0000290F0000610F0000CA
:100EA000530F0000C70E0000610F0000610F00002B
:100EB000CF0E0000610F0000610F0000D70E000090
:100EC000AA2B4AD04CE0786802F052FF4BE07868D9
:100ED00002F074FF47E0786802F096FF43E078681C
:100EE00002F0B8FF3FE0786802F0DBFF3BE0786893
:100EF00002F0FEFF37E0786803F021F833E078680D
:100F000003F044F82FE0786803F066F82BE0786887
:100F100003F088F827E0786803F0ABF823E07968FD
:100F2000012003F0CDF81EE07968022003F0C8F834
:100F300019E0786803F008F915E0786803F027F9FC
:100F400011E0786803F046F90DE0786803F065F980
:100F500009E0786803F084F905E0FFF719FF02E083
:100F6000FFF716FF00BF00BF0837BD4680BD00BFBA
:100F700080B586B000AF78600B46FB70FB78002B25
:100F800038D0224A7B680133DB0013449B683B6105
:100F9000FA7813461B029A1A3B69D31AFB600023A6
:100FA000FB7518E0194A7B680133DB0013449A682B
:100FB000FB68174981FB03014911DB17CB1A134961
:100FC0001A447B680133DB000B449A6003F098F904
:100FD000FB7D0133FB75FB7D632BE3D9FA78134668
:100FE0001B029B1A094A19467B680133DB00134434
:100FF000996007E0054A7B680133DB0013444FF634
:10100000FF729A6000BF1837BD4680BD0060024085
:101010001F85EB5180B586B000AF78600B46FB7042
:10102000FB78002B38D0224A7B680133DB00134465
:101030009B683B61FA7813461B029A1A3B69D31AE4
:10104000FB600023FB7518E0194A7B680133DB0065
:1010500013449A68FB68174981FB03014911DB17A8
:10106000CB1A13491A447B680133DB000B449A60A6
:1010700003F046F9FB7D0133FB75FB7D632BE3D960
:10108000FA7813461B029B1A094A19467B680133FA
:10109000DB001344996007E0054A7B680133DB00FD
:1010A00013444FF6FF729A6000BF1837BD4680BDEB
:1010B000006002401F85EB5180B485B000AF03464D
:1010C0000A46FB711346BB71BB79DB43FB73FB7BA9
:1010D000002B19D0FA7B13461B029B1ABB60FB79CD
:1010E000002B09D0184ABB681364174ABB68136108
:1010F000154ABB68136205E0134ABB681361124AC4
:10110000BB681362012318E0FB79002B0CD00E4B57
:101110004FF6FF721A640C4B4FF6FF721A610A4BBE
:101120004FF6FF721A6207E0074B4FF6FF721A6123
:10113000054B4FF6FF721A62012318461437BD465D
:101140005DF8047B704700BF0060024080B485B04A
:1011500000AF03460A46FB711346BB71BB79DB4304
:10116000FB73FB7B002B19D0FA7B13461B029B1AE7
:10117000BB60FB79002B09D0184ABB689363174A00
:10118000BB689364154ABB68936105E0134ABB686A
:101190009364124ABB689361012318E0FB79002B2A
:1011A0000CD00E4B4FF6FF729A630C4B4FF6FF724A
:1011B0009A640A4B4FF6FF729A6107E0074B4FF6AD
:1011C000FF729A64054B4FF6FF729A61012318462D
:1011D0001437BD465DF8047B704700BF00600240D5
:1011E00080B586B000AF786039603B68002B3CDD8D
:1011F0003B68C3F580733B61224A7B680133DB00A7
:1012000013449B68FB603A6913461B029A1AFB68F9
:10121000D31ABB600023FB7518E01A4A7B680133C0
:10122000DB0013449A68BB68174981FB030149112D
:10123000DB17CB1A13491A447B680133DB000B44DC
:101240009A6003F0CFF8FB7D0133FB75FB7D632BC8
:10125000E3D93A6913461B029B1A0A4A19467B686E
:101260000133DB001344996007E0064A7B680133D1
:10127000DB0013444FF6FF729A6000BF1837BD467B
:1012800080BD00BF008003401F85EB5180B586B054
:1012900000AF786039603B68002B3CDD3B68C3F5EC
:1012A00080733B61224A7B680133DB0013449B68F7
:1012B000FB603A6913461B029A1AFB68D31ABB609B
:1012C0000023FB7518E01A4A7B680133DB001344E6
:1012D0009A68BB68174981FB03014911DB17CB1AD8
:1012E00013491A447B680133DB000B449A6003F016
:1012F00079F8FB7D0133FB75FB7D632BE3D93A69FC
:1013000013461B029B1A0A4A19467B680133DB000D
:101310001344996007E0064A7B680133DB001344FD
:101320004FF6FF729A6000BF1837BD4680BD00BF00
:10133000008003401F85EB5180B485B000AF0346A9
:10134000FB71FB795B42FB73FB7B002B0CD0FA7BC0
:1013500013461B029B1ABB600B4ABB6893610A4A87
:10136000BB681364012308E0074B4FF6FF729A61D4
:10137000054B4FF6FF721A64012318461437BD4619
:101380005DF8047B704700BF0080034080B485B0E7
:1013900000AF0346FB71FB79DB43FB73FB7B002B48
:1013A0000AD0FB7B1B02BB600B4ABB6813620A4A74
:1013B000BB689364012308E0074B4FF6FF721A6283
:1013C000054B4FF6FF729A64012318461437BD4649
:1013D0005DF8047B704700BF0080034080B500AF1C
:1013E0002B4B1B78042B30D12A4B1B78042B2CD190
:1013F0009620FFF7CBFF284803F00AF84B20FFF7B1
:10140000C5FF00BFFFF7A8FB034683F00103DBB273
:10141000002BF7D1214802F0FBFFC820FFF7B6FFF1
:101420001F4802F0F5FF0020FFF7B0FF42F21070F6
:1014300002F0EEFF4B20FFF7A9FF154B05221A70B3
:10144000144B05221A70012320E0114B1B78032B4B
:101450001BD1104B1B78032B17D1F020FFF796FF01
:101460000F4802F0D5FF0020FFF790FF42F2107006
:1014700002F0CEFF4B20FFF789FF054B05221A70C3
:10148000044B05221A70012300E00023184680BD9A
:10149000080000200900002040420F000024F40052
:1014A00000093D0080B500AF1A4B1B78052B23D1F6
:1014B000194B1B78052B1FD1C820FFF73DFF17489C
:1014C00002F0A6FF3220FFF737FF154802F0A0FF19
:1014D000C820FFF75BFF124802F09AFF3220FFF7A7
:1014E00055FF0F4802F094FF0A4B03221A700A4B73
:1014F00003221A7001230AE0064B1B78032B05D147
:10150000054B1B78032B01D1012300E00023184673
:1015100080BD00BF080000200900002000093D0038
:1015200080841E0080B500AF9620FFF72FFF0F4884
:1015300002F06EFF6420FFF729FF00BFFFF70CFBEE
:10154000034683F00103DBB2002BF7D1084802F019
:101550005FFF0020FFF71AFF064B03221A70064BAD
:1015600003221A700123184680BD00BF40420F00BD
:1015700080969800080000200900002080B500AF88
:101580000D4B1B78032B14D10C4B1B78032B10D164
:10159000E620FFF7D1FE0A4802F03AFF3220FFF7BB
:1015A000CBFE054B04221A70044B04221A7001234F
:1015B00000E00023184680BD08000020090000203C
:1015C00000093D0080B582B000AF0346FB71FB7996
:1015D000002B24D0264B1B78012B01D1002342E0A5
:1015E000FF21012002F02AFF224B1B68184602F05F
:1015F0000FFFFF21012002F021FF00BFFFF7BCFA1F
:10160000034683F00103DBB2002BF7D10021012058
:1016100002F014FF164B01221A70012323E0164B2F
:101620001B78012B01D100231DE0FF21022002F0D5
:1016300005FF104B1B68184602F0EAFEFF2102204E
:1016400002F0FCFE00BFFFF7A7FA034683F0010398
:10165000DBB2002BF7D10021022002F0EFFE064B97
:1016600001221A70012318460837BD4680BD00BF0D
:1016700008000020000000200900002080B500AF15
:10168000FF20FFF783FE274802F0C2FE6420FFF729
:101690007DFE00BFFFF760FA034683F00103DBB273
:1016A000002BF7D1FF21022002F0E9FEFF210120EB
:1016B00002F0E5FE1C4802F0ABFEFF21022002F022
:1016C000DEFEDC21012002F0DAFE11E0FFF754FA21
:1016D0000346002B03D03221012002F0D0FEFFF799
:1016E0005BFA0346002B03D03221022002F0C7FE32
:1016F000FFF742FA034683F00103DBB2002BE5D18A
:10170000FFF74AFA034683F00103DBB2002BDDD179
:10171000054802F07DFE4B20FFF738FE01231846F6
:1017200080BD00BF400D030080841E0080B500AF67
:10173000FA20FFF701FE0A4802F06AFE3220FFF7A6
:10174000FBFD084802F064FE0020FFF71FFE064B79
:1017500003221A70054B02221A7000BF80BD00BF21
:1017600080841E00801A0600080000200900002066
:1017700080B500AFFFF796FE0120FFF723FFFE21A3
:101780000120FFF799FC284802F09AFEC8210120A9
:10179000FFF792FC244802F093FE00210120FFF79E
:1017A0008BFCFFF76BFF214802F08AFEFE2101202F
:1017B000FFF782FC1C4802F083FE96210120FFF710
:1017C0007BFC1B4802F07CFE00210120FFF774FC2B
:1017D0000021012002F053FE0021022002F04FFE02
:1017E000114802F06DFEFFF7A1FF0020FFF7EAFEAF
:1017F0000D4802F065FEFE210120FFF75DFC0D485B
:1018000002F05EFEC8210120FFF756FC094802F0F5
:1018100057FE00210120FFF74FFC034802F050FE65
:10182000FFF780FE00BF80BD8096980040420F0009
:10183000005A6202C0E1E40080B582B000AF034606
:10184000FB80FB8807EE903AF8EEE77A17EE900AF5
:1018500002F0F4F802460B464FF000000B4901F08D
:10186000BDFE02460B46104619464FF00002084BDB
:1018700001F02AFE02460B461046194603F07FFA95
:1018800003469BB218460837BD4680BD0000F03FB6
:101890000000F04080B582B000AF0346FB80FB88BB
:1018A0001846FFF7C9FF03461A46034B1A8000BFCC
:1018B0000837BD4680BD00BFDE04002080B400AF05
:1018C000044B1A88044B9A6100BFBD465DF8047B47
:1018D000704700BFDE04002000A0034080B400AFCA
:1018E000084B5B69074A43F004035361054B5B698E
:1018F000044A23F00803536100BFBD465DF8047B32
:10190000704700BF00A0034080B400AF084B5B6984
:10191000074A23F004035361054B5B69044A43F013
:101920000803536100BFBD465DF8047B704700BFEC
:1019300000A0034080B500AF00220821024802F059
:10194000D5FD00BF80BD00BF80F00F4080B500AF67
:1019500001220821024802F0C9FD00BF80BD00BF7E
:1019600080F00F4080B500AF00221221024802F043
:10197000BDFD00BF80BD00BF40F00F4080B500AF8F
:1019800001221221024802F0B1FD00BF80BD00BF5C
:1019900040F00F4080B400AF084B5B69074A23F06A
:1019A00080035361054B5B69044A43F04003536174
:1019B00000BFBD465DF8047B704700BF00A0034038
:1019C00080B400AF054B5B69044A23F040035361C8
:1019D00000BFBD465DF8047B704700BF00A0034018
:1019E00080B500AF094B12221A600022112108486D
:1019F00002F07CFD00221021054802F077FD002254
:101A00000321034802F072FD00BF80BD00A0034027
:101A100040F00F4080B500AF094B11221A6001223F
:101A20001121084802F062FD00221021054802F051
:101A30005DFD00220321034802F058FD00BF80BD78
:101A400000A0034040F00F4080B500AF094B1022CA
:101A50001A6000221121084802F048FD01221021DD
:101A6000054802F043FD00220321034802F03EFD39
:101A700000BF80BD00A0034040F00F4080B500AF24
:101A8000094B0F221A6001221121084802F02EFD95
:101A900001221021054802F029FD002203210348FC
:101AA00002F024FD00BF80BD00A0034040F00F40C5
:101AB00080B500AF094B0E221A60002211210848A0
:101AC00002F014FD00221021054802F00FFD012252
:101AD0000321034802F00AFD00BF80BD00A00340BF
:101AE00040F00F4080B500AF094B0D221A60012273
:101AF0001121084802F0FAFC00221021054802F0EA
:101B0000F5FC01220321034802F0F0FC00BF80BD78
:101B100000A0034040F00F4080B500AF094B0C22FD
:101B20001A6000221121084802F0E0FC0122102175
:101B3000054802F0DBFC01220321034802F0D6FC39
:101B400000BF80BD00A0034040F00F4080B500AF53
:101B5000094B0B221A6001221121084802F0C6FC31
:101B600001221021054802F0C1FC01220321034893
:101B700002F0BCFC00BF80BD00A0034040F00F405D
:101B800080B582B000AF03463A60FB710B46BB7173
:101B9000FB7983F00103DBB2002B02D0FFF7CAFE12
:101BA00001E0FFF7D3FE3B6807EE903AF8EE677A64
:101BB000B0EE087A67EE877AFCEEE77A17EE903A95
:101BC0003B60BB79072B3AD801A252F823F000BF43
:101BD000F11B0000F91B0000031C00000D1C00009D
:101BE000171C0000211C00002B1C0000351C0000ED
:101BF000FFF7F6FE3B6823E0FFF70CFF3B685B0056
:101C00001EE0FFF721FF3B689B0019E0FFF736FF5E
:101C10003B68DB0014E0FFF74BFF3B681B010FE064
:101C2000FFF760FF3B685B010AE0FFF775FF3B6869
:101C30009B0105E0FFF78AFF3B68DB0100E000BF86
:101C400018460837BD4680BD2DE9B0438CB000AFC3
:101C500087ED020A7A601A460346FB730B46BB7394
:101C60001346BB81FFF77EFED7ED027AF5EEC07A10
:101C7000F1EE10FAC0F23681D7ED027AB6EE007AB4
:101C8000F4EEC77AF1EE10FA00F22C81BB89B3F5BD
:101C90007A7F00F227817B685B007B60BB891846F6
:101CA000FFF7CAFD0346FB62B97BFB7B7A681846E7
:101CB000FFF766FF78607B6807EE903AB8EE677AC8
:101CC000D7ED027A67EE277AFCEEE77A17EE903AC4
:101CD000BB627A68BB6AD31A7B62BB8907EE903A13
:101CE000F8EE676ABB6A07EE903AB8EE677AC6EE1E
:101CF000877AC7ED087A7B6807EE903AF8EE677A44
:101D000097ED087A67EE277AC7ED077A0320FFF789
:101D1000C1FDFFF7D3FDFFF73DFEFFF7DFFD754B7C
:101D200000221A80C9E0734B1B889BB2002B43D062
:101D3000704B1B889BB21A46BB6A93423CD36D4BD7
:101D40001B889BB207EE903AF8EE677A97ED087A17
:101D500067EE277AC7ED067AD7ED067AB0EE087AF5
:101D6000F4EEC77AF1EE10FA25DD0020FEF752FE00
:101D70000020FEF785FEFF20FEF7B8FEB86901F0EF
:101D80005DFE02460B464FF000005B4901F026FC69
:101D900002460B46104619464FF00002574B01F021
:101DA00093FB02460B461046194602F0E8FF034635
:101DB0009AB2534B1A8080E04E4B1B889BB21A4656
:101DC000BB6A934214D24B4B1B889BB21A467B6A68
:101DD00093420DD90020FEF71DFEFF20FEF750FEB6
:101DE0000020FEF783FEFB6A9AB2454B1A8064E03E
:101DF000404B1B889BB21A467B6A93425DD8FF20FA
:101E0000FEF708FE0020FEF73BFE0020FEF76EFE08
:101E1000384B1B889BB207EE903AF8EE677A17EEC4
:101E2000900A01F00BFE02460B46144683F0004573
:101E3000386A01F003FE02460B462046294601F0AF
:101E400043FB02460B4690469946F86901F0F6FDC1
:101E500002460B464046494601F03AFD02460B4613
:101E60001046194601F0BEFD03467B61D7ED057AA9
:101E7000B0EE087AF4EEC77AF1EE10FA00DC1CE05E
:101E8000786901F0DBFD02460B464FF000001A496D
:101E900001F0A4FB02460B46104619464FF0000223
:101EA000164B01F011FB02460B461046194602F094
:101EB00066FF03469AB2124B1A800E4B1B889BB2E8
:101EC0001A467B6893423FF62EAF0020FEF7A2FD34
:101ED0000020FEF7D5FD0020FEF708FEFFF770FD9D
:101EE000FFF712FDFFF74AFD00BF3037BD46BDE8E2
:101EF000B08300BFDC0400200000F03F0000F04091
:101F0000DE04002080B400AF084B1B78642B01D89E
:101F1000012306E0054B1B78002B01D1012300E0D3
:101F200000231846BD465DF8047B7047EF0400208F
:101F300080B586B000AF0346FB710B46BB801346ED
:101F40007B80FFF70FFD0023FB75FEF735FE034690
:101F500083F00103DBB2002B67D0FFF7D3FF03460A
:101F6000FB75BB88B3F57A7F56D87B885B007B8096
:101F7000BB881846FFF760FC03463B617A88F97915
:101F8000FB7D1846FFF7FCFD03467B80BB8807EE10
:101F9000903AF8EE676A7B8807EE903AB8EE677A77
:101FA000C6EE877AC7ED037ABB8807EE903AF8EE63
:101FB000677AC7ED027A0320FFF76CFCFFF77EFC1F
:101FC000FFF7E8FCFFF78AFC284B00221A8000206C
:101FD000FEF720FDFF20FEF753FD0020FEF786FDF3
:101FE0003B699AB2224B1A8000BFFEF7E5FD03461B
:101FF00083F00103DBB2002BF7D11C4B00221A80C7
:102000001B4B00221A80FF20FEF704FD0020FEF784
:1020100037FD0020FEF76AFD0020FEF7FBFC0020E4
:10202000FEF72EFD0020FEF761FD124B00221A7014
:10203000FB7D002B08D0C82305229FED0F0A052148
:102040000020FFF701FE07E0C8230A229FED0A0ADD
:1020500005210020FFF7F8FDFFF7B2FCFFF754FC65
:10206000FFF78CFC00BF1837BD4680BDDC040020A4
:10207000DE040020EF040020CDCCCC3D80B586B03E
:1020800000AF0346FB710B46BB8013467B80FFF716
:1020900069FC0023FB75FEF78FFD034683F0010307
:1020A000DBB2002B6ED0FFF72DFF0346FB75BB881C
:1020B000B3F57A7F5DD87B885B007B80BB88184650
:1020C000FFF7BAFB03463B617A88F979FB7D184636
:1020D000FFF756FD03467B80BB8807EE903AF8EE8B
:1020E000676A7B8807EE903AB8EE677AC6EE877A21
:1020F000C7ED037ABB8807EE903AF8EE677AC7ED32
:10210000027A0320FFF7C6FBFFF7D8FBFFF742FC7C
:10211000FFF7E4FB264B00221A800020FEF77AFC32
:10212000FF20FEF7ADFC0020FEF7E0FC3B699AB211
:10213000204B1A8000BFFEF73FFD034683F00103EA
:10214000DBB2002BF7D11A4B00221A80FF20FEF7DA
:1021500061FC0020FEF794FC0020FEF7C7FC00BFE6
:10216000134B1B889BB27A889A42F9D8114B0022F4
:102170001A800020FEF74EFC0020FEF781FC0020B4
:10218000FEF7B4FCC82305229FED0B0A05210020B1
:10219000FFF75AFD094B00221A70FFF711FCFFF7F9
:1021A000B3FBFFF7EBFB00BF1837BD4680BD00BF98
:1021B000DC040020DE040020CDCCCC3DEF04002068
:1021C00080B485B000AF0346B9607A60FB733B4BC7
:1021D0001B78FA7B9A426BD0384B1B78642B33D830
:1021E000FB7B642B11D9FB7BC72B0ED8BB6801226C
:1021F0001A70324B1B789AB2FB7B9BB2D31A9BB2FC
:10220000C8339AB27B681A8052E02C4B1B78FA7B59
:102210009A420CD2BB6801221A70284B1B789AB2E2
:10222000FB7B9BB2D31A9AB27B681A8040E0BB68F2
:1022300000221A70FB7B9AB2204B1B789BB2D31AF8
:102240009AB27B681A8033E0FB7B002B11D0FB7BBA
:10225000642B0ED8BB6800221A70FB7B9AB2174B16
:102260001B789BB2D31A9BB2C8339AB27B681A8090
:102270001EE0124B1B78FA7B9A420CD2BB680122FB
:102280001A700E4B1B789AB2FB7B9BB2D31A9AB290
:102290007B681A800CE0BB6800221A70FB7B9AB244
:1022A000064B1B789BB2D31A9AB27B681A80FFE761
:1022B00000BF1437BD465DF8047B7047EF04002073
:1022C00080B586B000AF0346FB71154B1B78FA79D9
:1022D0009A421FD00023BB810023FB720523FB75AC
:1022E000104B3B614FF49673FB8107F10C0207F131
:1022F0000B01FB791846FFF763FFF87ABB891A4692
:10230000FB89F97D97ED040AFFF79EFC044AFB79EF
:10231000137000E000BF00BF1837BD4680BD00BF8E
:10232000EF040020CDCCCC3D80B586B000AF034695
:10233000FB71154B1B78FA799A421FD00023BB81A1
:102340000023FB720523FB754FF07A533B61C823D2
:10235000FB8107F10C0207F10B01FB791846FFF72F
:102360002FFFF87ABB891A46FB89F97D97ED040A9D
:10237000FFF76AFC044AFB79137000E000BF00BF5E
:102380001837BD4680BD00BFEF04002080B400AF09
:102390000C4B5B690B4A23F080035361094B9B692B
:1023A000094A12881146074A0B449361074B1B8860
:1023B0009BB201339AB2054B1A8000BFBD465DF84F
:1023C000047B704700A00340DE040020DC040020F2
:1023D00080B483B000AF0346FB7197F90730002B40
:1023E0000BDBFB7903F01F02074997F907305B0904
:1023F000012000FA02F241F8232000BF0C37BD464D
:102400005DF8047B704700BF00E100E080B483B05A
:1024100000AF0346FB7197F90730002B12DBFB7905
:1024200003F01F020A4997F907305B09012000FAFF
:1024300002F2203341F82320BFF34F8F00BFBFF3D8
:102440006F8F00BF00BF0C37BD465DF8047B70473F
:1024500000E100E080B483B000AF03463960FB7157
:1024600097F90730002B0ADB3B68DAB20C4997F981
:1024700007301201D2B20B4483F800230AE03B6814
:10248000DAB20849FB7903F00F03043B1201D2B220
:102490000B441A7600BF0C37BD465DF8047B7047CD
:1024A00000E100E000ED00E080B483B000AF2E4B0F
:1024B0001B79FB712C4BDB79BB71FB7903F020039B
:1024C000002B1ED0294B1B889BB2B3F5007F18D27E
:1024D000274B1B885A1C91B2254A11801946254A60
:1024E000BB795354214B1B889BB201339AB21F4BCB
:1024F0001A801F4B1B88B3F5007F02D11C4B0022B2
:102500001A8097F90730002B27DA1B4B1B889BB2E8
:10251000002B1AD0194B1B885A1C91B2174A1180F4
:102520001946114B164A525CDA71134B1B889BB249
:10253000013B9AB2104B1A80104B1B88B3F5007FF9
:102540000BD10E4B00221A8007E0074BDB78DBB281
:10255000054A03F07F03DBB2D37000BF0C37BD46E2
:102560005DF8047B704700BF00B00640E004002027
:10257000E204002018000020E6040020EA04002005
:102580001802002080B400AF044B1B79034BDB79A9
:1025900000BFBD465DF8047B704700BF00B0064039
:1025A00080B582B000AF0346FB7100BF184B1B889B
:1025B0009BB2B3F5007FF9D2164B1B885A1C91B21F
:1025C000144A11801946144AFB795354114B1B8845
:1025D000B3F5007F02D10F4B00221A80212002F0B8
:1025E00074F80B4B1B889BB201339AB2084B1A80CC
:1025F0002120FFF7EDFE094BDB78DBB2074A63F0E1
:102600007F03DBB2D37000BF0837BD4680BD00BF7B
:10261000E6040020E80400201802002000B0064074
:1026200080B582B000AF00BF184B1B889BB2002B57
:10263000FAD0174B1B881A46164B9B5CFB71144B48
:102640001B881A46134B00219954114B1B880133E8
:102650009AB20F4B1A800E4B1B88B3F5007F02D144
:102660000B4B00221A80212002F02FF8074B1B8809
:102670009BB2013B9AB2054B1A802120FFF7A8FEBE
:10268000FB7918460837BD4680BD00BFE004002036
:10269000E40400201800002080B483B000AF134B86
:1026A0001B88BB800023FB8012E0BB885A1CBA80C9
:1026B0001A460F4B9B5C0A2B01D101230FE0BB880C
:1026C000B3F5007F01D10023BB80FB880133FB8081
:1026D000084B1B889BB2FA889A42E6D3002318461F
:1026E0000C37BD465DF8047B704700BFE404002052
:1026F00018000020E004002080B584B000AF7860AE
:1027000000212F4B0A461A802E4B0A461A802D4B69
:102710001A882D4B1A8000212C4B0A461A802C4B0C
:102720000A461A802A4B1A882A4B1A802A4B03F52C
:10273000815318331B68284943F4006201F5815323
:1027400018331A60244B03F5815314331B68224954
:1027500043F4006201F5815314331A601F4B40F2B9
:102760002332DA601D4B40F223321A617B681B0171
:102770001B4AB2FBF3F3FB60FB681B0ADBB2194A8E
:1027800003F01F03DBB21370164BFA68D2B25A7013
:10279000144B2C22DA7008212120FFF75BFE212048
:1027A000FFF716FE0F4B0E229A7108212220FFF729
:1027B00051FE2220FFF70CFE00BF1037BD4680BD42
:1027C000E6040020E8040020EA040020E0040020E1
:1027D000E2040020E40400200070044000B0044043
:1027E000000E270700B0064080B483B000AF7860C9
:1027F000084B1B6823F440227B689B0403F44023AE
:10280000044913430B6000BF0C37BD465DF8047BE1
:10281000704700BF0070044080B483B000AF7860A0
:102820000B4B03F5805304331B6823F440327B6861
:102830001B0403F4403306491A4301F58053043363
:102840001A6000BF0C37BD465DF8047B704700BFBF
:102850000070044080B485B000AF78607B6849F6B2
:102860009702934202D80023FB7308E07B68074A73
:10287000934202D80123FB7301E00223FB73FB7B2D
:1028800018461437BD465DF8047B704700127A0085
:1028900080B582B000AF78600A497B685A6801F55C
:1028A000825304331A607B681B781846FFF7B4FF25
:1028B0007B685B781846FFF797FF00BF0837BD4677
:1028C00080BD00BF0070044080B485B000AF0346F7
:1028D000FB71174B1B7BDBB203F00302FB799A42BF
:1028E00002D00123FB7301E00023FB73104B1B7B21
:1028F000DBB223F00303DAB2FB7903F00303DBB2AC
:102900000B491343DBB20B73FB7B002B09D040F266
:10291000DC53BB6000E000BFBB685A1EBA60002BEE
:10292000F9D1002318461437BD465DF8047B704783
:102930000040064080B584B000AF78607B68002B13
:1029400002D11C4800F076FB0023FB737B685B78A8
:1029500003F01F03DAB2FB7B1343FB73164AFB7BC6
:102960001371154B5B79DBB223F01F03DAB27B687E
:102970009B7803F01F03DBB20F491343DBB24B71AB
:102980000D4B1B79DAB27B681B781343DBB20A4A22
:1029900043F04003DBB2137100BF074B9B79DBB2FE
:1029A00003F04003002BF8D000BF00BF1037BD4636
:1029B00080BD00BF6C4E00000040064080B584B072
:1029C00000AF78607B681B681846FFF743FF03463B
:1029D000FB737B681B791946194801F01EFF194BE0
:1029E0005B78DBB223F03C03DAB2FB7B1B01DBB28A
:1029F00003F03003DBB21343DAB27B685B79114931
:102A00001343DBB24B707B68063319460C4801F068
:102A1000E4FE7B685B79002B0DD0094B1B78DBB2A1
:102A20005BB2002B07DA00BF064B9B79DBB203F0E9
:102A30000203002BF8D000BF1037BD4680BD00BF99
:102A4000005006400040064080B582B000AF03460B
:102A50003960FB713B68002B02D1234800F0EAFA91
:102A6000224B5B78DBB2214A23F00203DBB25370C6
:102A70001E4B1B78DBB203F03B03DBB21B4A63F057
:102A80007F03DBB2137000BF184B9B79DBB203F0FE
:102A90001C03082BF8D1154B5B79DBB2134A23F0EA
:102AA0004003DBB2537100BF104B9B79DBB203F0E4
:102AB0002003002BF8D13868FFF73CFF0B4B5B7904
:102AC000DBB20A4A43F04003DBB2537100BF074B4D
:102AD0009B79DBB203F02003002BF8D000231846CB
:102AE0000837BD4680BD00BF884E0000004006404C
:102AF00080B582B000AF03463A60FB710B46BB71F4
:102B00003B68002B02D1114800F094FAFB7918467B
:102B1000FFF7DAFEBB7939681846FFF795FF0C4BD3
:102B20001B78DBB20A4A03F03F03DBB2137000BF2D
:102B3000074B9B79DBB29B0803F00303032BF7D110
:102B4000002318460837BD4680BD00BFA44E0000D4
:102B50000040064080B586B000AFF860B9607A608A
:102B60007B68002B02D1144800F064FA01237B61DA
:102B70007B681B78002B0AD1FB685A697969BB68AE
:102B800001FA03F3DB431A40FB685A610FE07B68EC
:102B90005B781A46B968F86801F059FEFB685A6913
:102BA0007969BB6801FA03F31A43FB685A6100BFF5
:102BB0001837BD4680BD00BFC04E000080B500AFD5
:102BC0000B4BD3F888300A4A43F47003C2F88830BC
:102BD000084B4CF22052DA81064B4DF62812DA816E
:102BE000044B4FF4E9721A8001F067FE00BF80BD0C
:102BF00000ED00E00020054080B400AF054B03F578
:102C000082530433044A1A6000BFBD465DF8047B5A
:102C1000704700BF007004400000230180B483B0FF
:102C200000AF7860044A7B68136000BF0C37BD4674
:102C30005DF8047B704700BF1804002080B483B0A7
:102C400000AF0346FB710B4B1B78DBB223F038035C
:102C5000DAB2FB79DB00DBB203F03803DBB2054903
:102C60001343DBB20B7000BF0C37BD465DF8047B2D
:102C7000704700BF0040064080B500AFAA2114484D
:102C800001F022FE124801F0FFFD00BF104801F0E4
:102C90002AFE0346802BF9D1FFF7AEFF0D48FFF760
:102CA0008DFE0D4B1846FFF7B9FF00231846FFF7BE
:102CB000C5FF0023094A00211846FFF719FF0848FD
:102CC000FFF7E6FD074B084A1A6000BF80BD00BF52
:102CD00000E00740F84E000000127A00EC4E0000C1
:102CE000F04E000004000020000E270780B58CB0D5
:102CF00000AFC04801F017FEBF4801F014FEBF4806
:102D000001F011FEBE4801F00EFEBE4801F00BFEC0
:102D1000002387F82C30002387F82D3007F12C038F
:102D20001A460D21B848FFF715FF012387F8283010
:102D3000002387F8293007F128031A460021B348F9
:102D4000FFF708FF012387F82430002387F8253098
:102D500007F124031A460121AC48FFF7FBFE0123CB
:102D600087F82030002387F8213007F120031A4626
:102D70000221A648FFF7EEFE01233B7700237B7775
:102D800007F11C031A460321A048FFF7E3FE0123C5
:102D90003B7600237B7607F118031A4610219B48E7
:102DA000FFF7D8FE01233B7500237B7507F1140361
:102DB0001A4611219548FFF7CDFE01233B740023ED
:102DC0007B7407F110031A4612219048FFF7C2FEE8
:102DD00001233B7300237B7307F10C031A46082180
:102DE0008B48FFF7B7FE00233B7200237B7207F18D
:102DF00008031A4607218748FFF7ACFE00233B7102
:102E000000237B713B1D1A4600218348FFF7A2FE79
:102E100000233B7000237B703B461A4601217E480D
:102E2000FFF798FE032201217C4801F096FD7B4BC1
:102E30005B687A4A23F0807323F003035360032214
:102E40000C21764801F089FD744B1B6B734A23F00B
:102E5000807323F00303136301220D216F4801F0F7
:102E60007CFD6E4B5B6B23F0807323F003036B4A96
:102E700043F00303536303220221684801F06DFD10
:102E8000664B9B68654A23F0807323F003039360CD
:102E900003220421614801F060FD604B1B695F4A19
:102EA00023F0807323F003031361032205215B48A1
:102EB00001F053FD594B5B69584A23F0807323F0AE
:102EC0000303536101220021554801F046FD012210
:102ED0000121534801F041FD01221021504801F029
:102EE0003CFD012211214E4801F037FD0122122143
:102EF0004B4801F032FD03221321494801F02DFD1A
:102F000001220221464801F028FD01220321444804
:102F100001F023FD03220A21424801F01EFD032295
:102F20000B21404801F019FD012208213D4801F024
:102F300014FD032209213B4801F00FFD042200216A
:102F4000394801F00AFD04220121374801F005FD4E
:102F500004220221344801F000FD042203213248FA
:102F600001F0FBFC042204212F4801F0F6FC0422AE
:102F700005212D4801F0F1FC012207212A4801F02A
:102F8000ECFC294BDB6923F0807323F00303264A12
:102F900043F00303D36101220021244801F0DDFC4A
:102FA000224B1B6823F0807323F003031F4A43F076
:102FB00003031360012201211C4801F0CEFC1B4BCE
:102FC0005B6823F0807323F00303184A43F0030384
:102FD0005360174B03F580530C331B68144923F4DB
:102FE000980201F580530C331A6000BF3037BD469C
:102FF00080BD00BF090038100A0038100B003810DF
:103000000C0038100D00381000F00F4040F00F4059
:1030100080F00F40C0F00F4000F10F4000900440DE
:1030200000A0044000B0044000C0044000D00440B0
:103030000070044010B50F4904460F4801F0B8FD78
:103040000C49204601F0B4FD0C49D1F88030013B19
:10305000002BC1F8803008DB8B6F5A1C8A670A226C
:103060001A70BDE8104000F00BB878310A2001F06A
:10307000BEFCF6E794040020044F00001C0400206E
:1030800018200149ABBE7047260002002DE9F0412F
:10309000D5685769EB0280460E46144605D538467A
:1030A00001F0BCFE45F01005A061124B2B408BB126
:1030B000A169384601F0C4FE002806DAE36843F04F
:1030C0008003E3604FF0FF3011E025F4003525F078
:1030D0001005E56032464146384601F0BDFE20F05D
:1030E0000041761AA1690E44A6610028E6D1BDE828
:1030F000F08100BF10000200F8B5304E346800289F
:1031000051D10020F8BD2368B3F1805F39D1D4E9F3
:10311000013252B11168B1F1805F06D151680333B9
:103120000B4463609368A360F1E7AB4207DB9E4505
:1031300005DB20464FF0005340F80C3BE2E76345C7
:1031400011D920464FF00051656040F80C1B5B1B05
:1031500000EB8501A160033B4FF0805440F825400F
:10316000C1E90132CEE762B9A0EB830000F060F95B
:103170000130C6D04FF00053C4E9003504F10C0013
:10318000C0E72746A468002CBDD10C3000F050F9F0
:10319000431CB6D04FF00053C0E90035846057B9E6
:1031A00030600C30AEE7C31C9D08002705F10A0C07
:1031B00005F1030EE7E7B860F3E700BFD404002091
:1031C00010B5FFF799FF044628B90449172201F00A
:1031D00043FEFFF755FF204610BD00BF194F00000A
:1031E000F8B555EC104B10EE100A002200232946CA
:1031F00001F0DDFD40B9C5F30A51A1F2FF37002F00
:103200002B4606DA002D2ADA0020002141EC100BB3
:10321000F8BD332F26DC132F13DDA1F213404FF03E
:10322000FF31C14001EA040624EA010210461946B2
:10323000002EEBD0002DE9DB0C4B002200F048FB08
:10324000E4E70B4941FA07F7C5F3130101EA070662
:1032500021EA0701264361F313030246E6E7034927
:103260000020D3E720462946D0E700BF0000F03F0A
:10327000FFFF0F002DE9F843C6683D4B334004467D
:103280000D4690461BB902273846BDE8F883D0F8B2
:103290001490484601F0C8FD07460028F3D1B8F164
:1032A000010F2CD0B8F1020F2ED0B8F1000FEAD1E7
:1032B000002DE8DBB00404D52368E26A9A4238BFE7
:1032C000E362A169A9420EDC2368E26A934238BF37
:1032D000134622695818801AA84204DB206B01EBC0
:1032E000000CAC4534DC0023C4E9013346F0200671
:1032F000A56226F4032626F04006E660C4E72046D1
:1033000000F038F80544D3E7484601F087FDB0F1F6
:10331000000CE26804DA42F08002E2600127B3E7C1
:1033200023681846A3691946E36A98422CBF091816
:10333000C9180B4621699206A3EB010303D5A26AC3
:103340009342B8BF13466345ACBFED186544AFE781
:103350006D1AB10744BF281AA060F10744BF9B1A39
:10336000EB1A154448BF6360256026F02006C0E7CD
:1033700003001000C3689A0705D10E4B21221A6082
:103380004FF0FF30704703F020021B0309D512B144
:10339000806A013870470368826900691344181A0B
:1033A000F7E70AB1806A70470368826900691344CD
:1033B000181A7047D804002010B5174A1749002082
:1033C00001F053FC4FF480734FF4806200211248E7
:1033D00001F004FC124A1349012001F046FC4FF4AD
:1033E00080730F484FF48062002101F0F7FB0E4B11
:1033F0001B68022B0EDD0D4A0A49022001F035FC44
:10340000BDE8104009484FF480734FF480620021FA
:1034100001F0E4BB10BD00BF1C040020314F0000D0
:1034200058040020334F0000004F00009404002097
:1034300070B50B4D2B680BB90A4B2B6003302E680F
:1034400020F003043444204600F032F810B92C6018
:10345000304670BD044B0C221A604FF0FF36F7E780
:10346000D0040020F0040020D8040020F7B5044662
:1034700098B103B0BDE8F04001F061BC07FB046007
:1034800001F05DFC002818BF4FF0FF350134019BAF
:10349000A342F3DC284603B0F0BD034B034E1B6888
:1034A000019305463C27F2E7004F00001C04002072
:1034B000044B23B1984234BF0020012070471846C6
:1034C000704700BFF01400202DE9F0471D4681EA47
:1034D0000506C1F30A5C14460B462F4640F2FF7EF8
:1034E00006F00046BCF1000F06D0F44504D0C5F349
:1034F0000A520AB1724507D15B0013F5001F55D37C
:1035000058D00020334943E0C1F3130343F480153E
:10351000630DE402A5FB048943EAC7270CEB020A0A
:1035200047F000474A460023E7FB0523A4FB00457C
:10353000C4464FF00009A846E0FB078918EB0C0CC5
:103540004FF0000E49EB0E0E12EB0E0243F100039A
:10355000B3F5801F4CEA94041CD2901843EB03018E
:1035600040EAD472AAF580650B466400E10F521858
:1035700043F1000340F2FD71B4F1004F174608BF5C
:1035800022F001078D4208D81E4306EB055138464C
:10359000BDE8F087AAF2FF35E8E7002D03DB46F02F
:1035A000FF4646F4E00600203146F1E77A0012F5C6
:1035B000001FF8D3084A7F009742A2D813424FF069
:1035C00000009FD017429DD046F0FF4141F4E0013A
:1035D000DEE700BF0000F87F0000E0FF2DE9F04FBC
:1035E000C1F30A57894614468C46804640F2FF7262
:1035F000594037B1974204D0C3F30A5008B1904202
:1036000007D1454A4FEA4C00904259D9002043491E
:1036100054E022463F1A4FEA585040EAC92C500D58
:1036200040EAC32343F0004B4CF000455D454FEAB0
:10363000C8244FEAC22A08BF544522BF630843EAA0
:10364000C5736A084FEA5A0825BF1C46154607F29B
:10365000FD3007F2FE3048EACB784FEA5B093522AD
:1036600000234D4508BF44454FEA430305D3B4EB5F
:10367000080465EB090543F0010324196D41212A73
:1036800008BF1E46013AECD14D4508BF444502D360
:10369000013308BF013601F0004240F2FD7188425B
:1036A00004D802EB00529119184607E00028A4BF85
:1036B00042F0FF4242F4E00200201146BDE8F08FE4
:1036C0005C0014F5001FA1D843EA0C0312EA43037F
:1036D00001D11249E8E710EA020501F0004302D1E6
:1036E00019462846EAE7224005D143F0FF4141F45C
:1036F000E0011046E2E714F5001F05D043F0FF415A
:10370000002041F4E001D9E710F5001F4FF0000060
:103710003FF47DAF1946D1E70000E0FF0000F87FDD
:10372000944693EA0102F0B50E4605469E4607D53B
:1037300003F100452B466246BDE8F04000F0C8B8F2
:103740008B4203D8844509D38B4207D102F1004252
:1037500056408EEA020E2A4665469446C6F30A5241
:1037600040F2FF714FEA1E508A424FEA1657C0EBF3
:10377000165400F09F80944200F09880C6F3130224
:10378000CEF313031F2C42F4801143F480134ED860
:1037900023FA04F2891A00F12002D21B93402CFA7A
:1037A00004F41C432C1B38BF01F1FF311CFA02F357
:1037B000254603D05B42651E04B9013911F4C01FD0
:1037C00053D1EA0FDB0F42EA410243EA450352EAD2
:1037D00003046CD0BC1E510B23D0510C01BF190F38
:1037E00041EA02121B01043CD10C01BF990F41EACE
:1037F00082029B00023C110D02BFD90F41EA420236
:1038000004F1FF344FEAD67108BF5B00B1EBD42F4F
:103810004FF0000006BF02EB0451184606F00041CD
:10382000F0BD190E41EA02221B02083CD3E7352CF9
:103830001BD8203C23FA04F2AA1AC4F1200003FA90
:1038400000F338BF01F1FF312CFA04F45FEA0C6099
:10385000154643EA040306D043F0FF035B42551EBE
:103860001AB9013901E0002BF8D1CA0209D4013F8D
:103870007A050FD0EA0F42EA4101DA0F42EA450524
:103880005B00002B21F480124FEA075405DB11196D
:103890002846C5E739051046C2E7013508BF0132A1
:1038A000B3F1004F08BF25F00105F0E75CB92146F0
:1038B0002046B5E733034FF0000001D00349AFE7DE
:1038C0000CB90249F4E73146E2E700BF0000F87F97
:1038D0002DE9F0431D4695EA010F0E460346AE461C
:1038E000174605D505F10043BDE8F043FFF718BFC3
:1038F0008D4284BF2E468E4640F2FF7CC6F30A51AD
:1039000084BF134607464FEA1E5061454FEA1652E0
:10391000C0EB16545CD08C4255D0C6F3130CCEF3DA
:1039200013011F2C4CF4801541F4801127D820304E
:10393000801A21FA04FC27FA04F4814021435B1821
:10394000654428BF013507FA00F1A8022BD50133E1
:1039500008BF013509B923F00203360D360506EB21
:103960005506710011F5001F37BFED0701323146D2
:1039700045EA530024BF00201105BDE8F083352C33
:10398000E3D8203C21FA04F01B18C4F1200001FA0E
:1039900000F127FA04F428BF01352143380618BF87
:1039A00041F0FF01D1E7002902F1FF3207DA0133CC
:1039B00008BF0135B1F1004F08BF23F0010305EB4B
:1039C00002511846D9E74CB906F000412046D4E729
:1039D00032034FF0000001D00149CEE73146F0E755
:1039E0000000F87F21F0004330B503F1474505F5AD
:1039F0007005B5F17E6F01F0004210D2410F03F166
:103A00004843C40041EAC303C0F300700344B4F167
:103A1000004F08BF23F0010343EA020030BD002D30
:103A200001DA1046FAE74C0014F5001F8CBF02487B
:103A300042F0FF40F2E700BF0000C07FC31013F068
:103A40007F610AD0B1F17F6F4FEA407243F0E043EB
:103A500008D003F148411046704703F000430020AE
:103A60001946704752EA0332014A18BF1346F6E777
:103A70000000F87F08B5FCF7D2FB08BD08B5FCF7DD
:103A8000CEFB08BD08B5FCF7CAFB08BD08B5FCF7BE
:103A9000C6FB08BD08B5FCF7C2FB08BD08B5FCF7BE
:103AA000BEFB08BD08B5FCF7BAFB08BD08B5FCF7BE
:103AB000B6FB08BD08B5FCF7B2FB08BD08B5FCF7BE
:103AC000AEFB08BD08B5FCF7AAFB08BD08B5FCF7BE
:103AD000A6FB08BD08B5FCF7A2FB08BD08B5FCF7BE
:103AE0009EFB08BD08B5FCF79AFB08BD08B5FCF7BE
:103AF00096FB08BD08B5FCF792FB08BD08B5FCF7BE
:103B00008EFB08BD08B5FCF78AFB08BD08B5FCF7BD
:103B100086FB08BD08B5FCF782FB08BD08B5FCF7BD
:103B20007EFB08BD08B5FCF77AFB08BD08B5FCF7BD
:103B300076FB08BD08B5FCF772FB08BD08B5FCF7BD
:103B40006EFB08BD08B5FCF76AFB08BD08B5FCF7BD
:103B500066FB08BD08B5FCF762FB08BD08B5FCF7BD
:103B60005EFB08BD08B5FCF75AFB08BD08B5FCF7BD
:103B700056FB08BD08B5FCF752FB08BD08B5FCF7BD
:103B80004EFB08BD08B5FCF74AFB08BD08B5FCF7BD
:103B900046FB08BD08B5FCF742FB08BD08B5FCF7BD
:103BA0003EFB08BD08B5FCF73AFB08BD08B5FCF7BD
:103BB00036FB08BD08B5FCF732FB08BD08B5FCF7BD
:103BC0002EFB08BD08B5FCF72AFB08BD08B5FCF7BD
:103BD00026FB08BD08B5FCF722FB08BD08B5FCF7BD
:103BE0001EFB08BD08B5FCF71AFB08BD08B5FCF7BD
:103BF00016FB08BD08B5FCF712FB08BD08B5FCF7BD
:103C00000EFB08BD08B5FCF70AFB08BD08B5FCF7BC
:103C100006FB08BD08B5FCF702FB08BD08B5FCF7BC
:103C2000FEFA08BD08B5FCF7FAFA08BD08B5FCF7BE
:103C3000F6FA08BD08B5FCF7F2FA08BD08B5FCF7BE
:103C4000EEFA08BD08B5FCF7EAFA08BD08B5FCF7BE
:103C5000E6FA08BD08B5FCF7E2FA08BD08B5FCF7BE
:103C6000DEFA08BD08B5FCF7DAFA08BD08B5FCF7BE
:103C7000D6FA08BD08B5FCF7D2FA08BD08B5FCF7BE
:103C8000CEFA08BD08B5FCF7CAFA08BD08B5FCF7BE
:103C9000C6FA08BD80B400AF00BE00BFBD465DF8E7
:103CA000047B704780B400AF00BE00BFBD465DF826
:103CB000047B704780B400AF00BE00BFBD465DF816
:103CC000047B704780B400AF00BE00BFBD465DF806
:103CD000047B704780B500AF0020FCF79BFE0020FE
:103CE000FCF7CEFE0020FCF701FF00BF80BD80B4D2
:103CF00083B000AF786039607B681A693B6822FA4C
:103D000003F303F0010318460C37BD465DF8047B4E
:103D1000704780B483B000AF786039607B681A69FF
:103D20003B6822FA03F303F0010318460C37BD4643
:103D30005DF8047B704780B487B000AFF860B9606D
:103D40001346FB7101237B61FB79002B05D17A6956
:103D5000BB689A40FB689A6004E07A69BB689A4045
:103D6000FB685A6000BF1C37BD465DF8047B704796
:103D700080B584B000AF78607B681B783B727B684D
:103D80005B787B727B689B78BB727B681B78FB726D
:103D90007B685B783B737B689B787B730A23BB7380
:103DA0007B689B781846FCF735FE07F10803184638
:103DB00000F09DFC00BF1037BD4680BD80B584B0CB
:103DC00000AF78607B681B783B727B685B787B72A6
:103DD0007B689B78BB727B681B78FB727B685B7827
:103DE0003B737B689B787B730A23BB737B689B78F0
:103DF0001846FCF745FE07F10803184600F077FC6B
:103E000000BF1037BD4680BD80B584B000AF78607C
:103E10007B681B783B727B685B787B727B689B78E6
:103E2000BB727B681B78FB727B685B783B737B683B
:103E30009B787B730A23BB737B689B781846FCF7DF
:103E400055FE07F10803184600F051FC00BF10377B
:103E5000BD4680BD80B584B000AF78607B681B78BC
:103E60003B727B685B787B727B689B78BB727B68FC
:103E70001B78FB727B685B783B737B689B787B73FA
:103E80000A23BB737B689B781946012000F04EFA29
:103E900007F10803184600F02AFC00BF1037BD46A2
:103EA00080BD80B584B000AF78607B681B783B72C2
:103EB0007B685B787B727B689B78BB727B681B78C6
:103EC000FB727B685B783B737B689B787B730A2310
:103ED000BB737B689B781946012000F055FA07F107
:103EE0000803184600F003FC00BF1037BD4680BD34
:103EF00080B584B000AF78607B681B783B727B68CC
:103F00005B787B727B689B78BB727B681B78FB72EB
:103F10007B685B783B737B689B787B730A23BB73FE
:103F20007B689B7819460020FDF7C6F807F1080367
:103F3000184600F0DCFB00BF1037BD4680BD80B5E1
:103F400084B000AF78607B681B783B727B685B78DD
:103F50007B727B689B78BB727B681B78FB727B688B
:103F60005B783B737B689B787B730A23BB737B68AE
:103F70009B7819460020FDF7E9F807F10803184679
:103F800000F0B5FB00BF1037BD4680BD80B584B0E2
:103F900000AF78607B681B783B727B685B787B72D4
:103FA0007B689B78BB727B681B78FB727B685B7855
:103FB0003B737B689B787B730A23BB737B689B781E
:103FC0001846FEF77DF907F10803184600F08FFB4D
:103FD00000BF1037BD4680BD80B584B000AF7860AB
:103FE0007B681B783B727B685B787B727B689B7815
:103FF000BB727B681B78FB727B685B783B737B686A
:104000009B787B730A23BB737B689B781846FEF70B
:104010008BF907F10803184600F069FB00BF103761
:10402000BD4680BD80B584B000AF78607B681B78EA
:104030003B727B685B787B727B689B78BB727B682A
:104040001B78FB727B685B783B737B689B787B7328
:104050000A23BB730122C8210520FDF769FF07F180
:104060000803184600F043FB00BF18461037BD4652
:1040700080BD80B584B000AF78607B681B783B72F0
:104080007B685B787B727B689B78BB727B681B78F4
:10409000FB727B685B783B737B689B787B730A233E
:1040A000BB73012296210520FDF7E8FF07F1080305
:1040B000184600F01CFB00BF18461037BD4680BDF7
:1040C00080B586B000AF03463960FB713B681B7852
:1040D0003B7300237B730023BB733B681B78FB732C
:1040E00000233B7400237B740A23BB7400237B6191
:1040F000FB79012B03D10120FCF78EFD7861FB7960
:10410000022B03D10220FCF787FD78617B691B0A33
:10411000DAB23B685A707B69DAB23B689A703B68E6
:104120005B787B733B689B78BB733B685B783B74C5
:104130003B689B787B7407F10C03184600F0D7FAB4
:1041400000BF1837BD4680BD80B584B000AF786031
:104150007B681B783B727B685B787B727B689B78A3
:10416000BB727B681B78FB727B685B783B737B68F8
:104170009B787B730A23BB73FDF730F907F10803C3
:10418000184600F0B4FA00BF1037BD4680BD80B5B8
:1041900084B000AF78607B681B783B727B685B788B
:1041A0007B727B689B78BB727B681B78FB727B6839
:1041B0005B783B737B689B787B730A23BB73FDF74B
:1041C00071F907F10803184600F091FA00BF1037A3
:1041D000BD4680BD80B584B000AF78607B681B7839
:1041E0003B727B685B787B727B689B78BB727B6879
:1041F0001B78FB727B685B783B737B689B787B7377
:104200000A23BB73FDF78EF907F10803184600F087
:104210006EFA00BF1037BD4680BD80B584B000AFD8
:1042200078607B681B783B727B685B787B727B680D
:104230009B78BB727B681B78FB727B685B783B73F7
:104240007B689B787B730A23BB73FDF797F907F1B3
:104250000803184600F04BFA00BF1037BD4680BD7A
:1042600080B584B000AF78607B681B783B727B6858
:104270005B787B727B689B78BB727B681B78FB7278
:104280007B685B783B737B689B787B730A23BB738B
:10429000FDF76EFA07F10803184600F028FA00BF90
:1042A0001037BD4680BD80B584B000AF0023BB6031
:1042B00007F10C0300210A461A800A469A7000236F
:1042C000FB7303E0FEF7E8F90346FB73FB7B83F027
:1042D0000103DBB2002BF5D10023FB7307F10803C8
:1042E0000721184600F022FA3A1D07F1080311468B
:1042F000184600F018F93B1D1846FCF761FDE5E78C
:1043000080B483B000AF00237B6003E000BF7B6814
:1043100001337B607B6844F61F629342F6DD00BF89
:1043200000BF0C37BD465DF8047B704780B584B094
:1043300000AF03460A46FB711346BB71BB79DB43F2
:10434000FB73FB79032B12D0032B16DC012B02D05D
:10435000022B06D011E0FB7B19460620FCF75AFE23
:104360000DE0FB7B19460020FCF754FE07E0FB7BC9
:1043700019460220FCF74EFE01E0002300E0012375
:1043800018461037BD4680BD80B584B000AF0346E7
:104390000A46FB711346BB71BB79DB43FB73FB79A8
:1043A000032B12D0032B16DC012B02D0022B06D0DC
:1043B00011E0FB7B19460520FCF7DAFD0DE0FB7BE5
:1043C00019460720FCF7D4FD07E0FB7B19460120C6
:1043D000FCF7CEFD01E0002300E001231846103772
:1043E000BD4680BD80B483B000AF00237B6003E096
:1043F00000BF7B6801337B607B6844F61F62934299
:10440000F6DD00BF00BF0C37BD465DF8047B70478A
:1044100080B485B000AF78600023FB6003E000BF8C
:10442000FB680133FB60FA687B689A42F7DB00BFE8
:1044300000BF1437BD465DF8047B704780B582B07D
:1044400000AF03460A46FB711346BB71FB79012B93
:1044500002D0022B06D00BE0BB7919460120FCF7F5
:1044600015FF07E0BB7919460620FCF70FFF01E0B6
:10447000002300E0012318460837BD4680BD80B503
:1044800082B000AF03460A46FB711346BB71FB794D
:10449000012B02D0022B06D00BE0BB79194602207B
:1044A000FCF79EFE07E0BB7919460720FCF798FE53
:1044B00001E0002300E0012318460837BD4680BD17
:1044C00080B485B000AF78600023FB6003E000BFDC
:1044D000FB680133FB60FA687B689A42F7DB00BF38
:1044E00000BF1437BD465DF8047B704780B487B0C9
:1044F00000AFF860B9601346FB7101237B61FB7963
:10450000002B05D17A69BB689A40FB689A6004E089
:104510007A69BB689A40FB685A6000BF1C37BD4689
:104520005DF8047B704780B483B000AF7860396079
:104530007B681A787B6803331B789A4240F0BC8012
:104540007B6801331A787B6804331B789A4240F009
:10455000AF807B6802331A787B6805331B789A42F8
:1045600040F0A6807B681B78332B03D13B68332255
:104570001A7092E07B681B78362B03D13B68362299
:104580001A708AE07B681B78392B03D13B6839228B
:104590001A7082E07B681B78032B03D13B680322EF
:1045A0001A707AE07B681B78052B03D13B680522E3
:1045B0001A7072E07B681B78092B03D13B680922D3
:1045C0001A706AE07B681B780B2B03D13B680B22C7
:1045D0001A7062E07B681B78152B03D13B681522AB
:1045E0001A705AE07B681B78162B03D13B681622A1
:1045F0001A7052E07B681B78182B03D13B68182295
:104600001A704AE07B681B78172B03D13B6817228E
:104610001A7042E07B681B782D2B03D13B682D225A
:104620001A703AE07B681B78302B03D13B6830224C
:104630001A7032E07B681B781B2B03D13B681B226E
:104640001A702AE07B681B781C2B03D13B681C2264
:104650001A7022E07B681B781D2B03D13B681D225A
:104660001A701AE07B681B781E2B03D13B681E2250
:104670001A7012E07B681B78322B03D13B68322220
:104680001A700AE07B681B78FF2B03D13B68FF227E
:104690001A7002E03B68AA221A707B6801331A780C
:1046A0003B685A707B6802331A783B689A7006E060
:1046B0003B68AA221A7002E03B68AA221A7000BF67
:1046C0000C37BD465DF8047B704780B582B000AF03
:1046D0000346FB7197F907301846FDF797FEBFF3C5
:1046E0004F8FBFF36F8F00BF0837BD4680BD80B5C9
:1046F00084B000AF78607B68002B13D00023FB6090
:1047000009E07B685A1C7A601B781846FDF748FF61
:10471000FB680133FB60FB68052BF2DD0A20FDF727
:104720003FFF00E000BF1037BD4680BD80B584B0BC
:1047300000AF78600B467B800023FB8113E0FDF720
:104740006FFF03461A467B681A707B681B780A2B3A
:1047500003D17B6800221A7009E07B6801337B601B
:10476000FB890133FB81FA897B889A42E7D3FB8975
:1047700018461037BD4680BD80B500AF00F00AF97D
:1047800000F0BEF800F0C9F8FBF7D8FEFBF792FF87
:10479000FCF724F8FCF7E6F8FFF79CFA4FF46140C9
:1047A000FDF7AAFFFFF77FFD0023184680BD042018
:1047B0007146084202D0EFF3098001E0EFF3088070
:1047C00081690A884BF6AB639A4200D0FEE702315A
:1047D000816120210160704700BF80B485B000AFC7
:1047E000786039607B681B78FB73FB7B03F05F03A9
:1047F000FB733B681A78FB7B1343FB737B68FA7B84
:104800001A703B685B789B01DAB27B689A7000BFD4
:104810001437BD465DF8047B704780B485B000AFA7
:1048200078600B46FB707B681B78FB73FB7B23F087
:104830000F03FB73FA7BFB781343FB737B68FA7BF4
:104840001A7000BF1437BD465DF8047B704780B412
:1048500087B000AFF860B9601346FB7101237B613C
:10486000FB79002B05D17A69BB689A40FB689A6096
:1048700004E07A69BB689A40FB685A6000BF1C3745
:10488000BD465DF8047B704780B485B000AF7860AA
:104890007B685B78FB73FB7B23F06003FB73FB7B24
:1048A00043F06003FB737B68FA7B5A700023184661
:1048B0001437BD465DF8047B704780B400AF00BF7D
:1048C000BD465DF8047B704780B483B000AF78606C
:1048D0000B46FB707B68FA781A7000BF0C37BD4638
:1048E0005DF8047B704780B483B000AF78607B686C
:1048F000DB78DBB218460C37BD465DF8047B7047A9
:1049000080B500AFFEF7B8F900BF80BD80B400AF3E
:1049100000BFBD465DF8047B704780B500AFFFF770
:10492000F5FF00BF80BD80B485B000AF78607B68C4
:104930001B0C03F1804303F58E23FB60FB681968B1
:104940007B689BB201229A40FB680A431A6000BF51
:104950001437BD465DF8047B704780B485B000AF66
:10496000F860B9601346FB71FB68BA6853F82230EF
:1049700023F4E062FB791B0203F4E06342EA0301E3
:10498000FB68BA6843F8221000BF1437BD465DF8D3
:10499000047B704780B500AFFEF7A8F900BF80BD6B
:1049A00008B5FEF709FDBDE80840FFF7E5BEC3689E
:1049B000826923F0200310B5C360836A9A420446DB
:1049C0000ED000F0B4F8E36823F4405323F0100352
:1049D00043F01003E360A36AA3612369E3622360E9
:1049E000E36823F4804323F04003E36010BDCB6809
:1049F00023F4002270B50C46CA609906054602D51C
:104A00002046FFF7D4FFD4E902365A1C10DAB0056D
:104A10000ED4C3F1FF2303F57F03FE33A3602368A5
:104A200046F490365A1CE66022601D70E8B270BDF4
:104A300041F28A023240022A07D0002346F0800663
:104A4000A360E6604FF0FF30F1E74AF21003334015
:104A5000B3F5004F0AD100212046FEF70BFCE368B6
:104A6000990602D52046FFF7A2FFE66846F4903388
:104A700016F4706FE3600ED1606900F0D5F900B3F1
:104A800072051ED504F12403236123600123E36131
:104A900046F49233E36013F4106F2168266926D040
:104AA000E36A99422CBFC6EB0101C6EB0301B9B919
:104AB000731CE3622360E36923635A1EA2603570AE
:104AC000B4E74FF48070FEF77BFBE26820614FF49F
:104AD0008073E36146F494331A432060E260DAE7BE
:104AE00022463046FEF7D2FA0028E1D0AAE74A1C57
:104AF000EDB222600D70E26A216891422CBFC6EBD4
:104B00000101C6EB0201E26922635B0503D40A2DB1
:104B100001D08A4209DC0023E6622660A3602246B7
:104B20003046FEF7B3FA00288CD128467FE738B527
:104B300001680569C36A0446C06820F40022E26087
:104B400000F08202022A02D04FF0FF3038BD10F48C
:104B50008030FBD0994238BF19468D4208D1E368B6
:104B6000E562002023F480332560A060E360EDE778
:104B70002246491B2846FEF789FA0028EFD0E3E7D2
:104B8000A8B14FF0805340F80C3C50F8042C72B19F
:104B90001368B3F1805F0AD150F8083C51680333C1
:104BA0000B4440F8083C936840F8043CEDE770473C
:104BB00038B505460C4615F8010B70B1A368013BEA
:104BC000002BA36004DB23685A1C22601870F2E7F4
:104BD0002146FFF70CFF431CEDD138BD70B5C4680A
:104BE000A50708D0B2F5007F11D0B2F5806F04D0D0
:104BF000B2F5807F0BD0012008E000F124010123F1
:104C0000224301610160C361C260002070BD5E1E6D
:104C10006FF07F45AE42F3D3EDE710B5421C83073A
:104C2000044616D1234654F8041BA1F1013020EAB2
:104C3000010010F0803FF5D011F0FF0F11D011F4FA
:104C40007F4F0CD011F47F0F14BF23460333981A03
:104C500004E010F8013B002BE1D1801A10BD0233B3
:104C6000F5E70133F3E700F0BAB870B50D46064634
:104C70001046144600F02DF82B78722B17D0772BA6
:104C800018D0612B23D1082348F2020215F8011F26
:104C90002B2912D0622915D01B07E260666104D56A
:104CA000022200212046FEF7E5FA204670BD0023CF
:104CB0000122EBE704230222E8E742F0030243F07B
:104CC0000203E3E742F0040243F00103DEE70024BD
:104CD000EBE7F0B5C468A10789B0054622D02207EA
:104CE00018D4D0E90467FEF7C1FB384600F090F80D
:104CF000230502D53046FFF743FFA40DA40514F1A8
:104D0000A54F07D1296A2022684600F09FF868461F
:104D100000F00BF83C2200212846FFF7A4FF0020FA
:104D200009B0F0BD4FF0FF30FAE710B50446FFF7C9
:104D300074FF01462046BDE8104000F07BB8C36810
:104D400070B513F00306044611D09B0611D5856A91
:104D5000FFF72DFEE36823F44053E3602046FFF79E
:104D6000E6FE0022064629462046FEF783FA304634
:104D700070BD816905680D4401696D1AEAE740F26A
:104D80001E42A2EB1152FF2A06D8CB0243EA505032
:104D900040F00040D040704701F1404000F58010E5
:104DA000B0F1804F4FF0FF3088BF0020704730B522
:104DB0001D4640EA45048C4614434B0054EA4C011E
:104DC00009D0AC4509D1904207D113F5001F8CBF23
:104DD0000020012030BD0120FCE70020FAE7034657
:104DE00013F0030F0ED101F0FF0141EA012141EA66
:104DF0000141043A24BF43F8041BB2F10402F9D282
:104E000002F10402013A24BF03F8011BFAE77047DC
:104E100003B469460220ABBE02B0704703B46946D2
:104E20000C20ABBE02B0704703B469460920ABBE8C
:104E300002B0704703B469460E20ABBE02B07047A3
:104E400003B469460A20ABBE02B070470FB469468E
:104E50000D20ABBE04B070470FB469460520ABBE51
:104E600004B07047AAAAAAAAAAAA0A002E66736C5E
:104E70005F636C6F636B2E633A31303530203A20BC
:104E8000636F6E66696700FF2E66736C5F636C6F9D
:104E9000636B2E633A31393330203A20636F6E668C
:104EA000696700FF2E66736C5F636C6F636B2E63C4
:104EB0003A32323131203A20636F6E66696700FF03
:104EC0002E66736C5F6770696F2E633A31303020E5
:104ED0003A204E554C4C20213D20636F6E66696729
:104EE00000FFFFFF0700000100000000000106FFB7
:104EF000000000000000340100127A0000040000ED
:104F0000030000002A2A2A206173736572742066E8
:104F100061696C6564203A20002A2A2A205F437365
:104F200079735F616C6C6F63206661696C65640A9C
:084F30000072007700FFFFFF93
:0C4F380000D43000000040010404FFFF22
:040000030000019167
:00000001FF
