:100000000000012091010000D901000077220000CA
:10001000DD010000DF010000E10100000000000040
:10002000000000000000000000000000E3010000EC
:10003000E501000000000000E7010000E901000008
:10004000991F0000A11F0000A91F0000B11F0000A0
:10005000B91F0000C11F0000C91F0000D11F000010
:10006000D91F0000E11F0000E91F0000F11F000080
:10007000F91F0000012000000920000011200000ED
:10008000192000002120000029200000312000005C
:1000900039200000412000004920000051200000CC
:1000A000592000006120000069200000712000003C
:1000B00079200000812000008920000091200000AC
:1000C00099200000ED05000085060000A120000039
:1000D000A9200000B1200000B9200000C1200000CC
:1000E000C9200000D120000011040000D920000028
:1000F000E1200000E9200000F1200000F9200000CC
:100100000121000009210000112100001921000037
:1001100021210000292100003121000039210000A7
:100120004121000049210000512100005921000017
:100130006121000069210000712100007921000087
:1001400081210000892100009121000099210000F7
:10015000A1210000A9210000B1210000B921000067
:10016000C1210000C92100003C280000000000203F
:10017000040000003C2800000000FF1F00000000F9
:1001800004000020D00400000000FF1F0000000059
:1001900038B572B600F018FC0C4C0D4DAC4206D3CD
:1001A0000C4DAC420AD362B602F088F8FEE7D4E9FF
:1001B0000001A2680C3400F019F8EFE754F8080BBE
:1001C00054F8041C00F01BF8EBE700BF68010000C6
:1001D0008001000090010000FEE7FEE7FEE7FEE779
:1001E000FEE7FEE7FEE7FEE7FEE7FEE710B50023C9
:1001F000934200D310BD1C585C500433F8E7002331
:100200001A468B4200D370471A500433F9E7FFFFB8
:10021000FFFFFFFFFFFFFFFFFFFFFFFFFFFFFFFFEE
:10022000FFFFFFFFFFFFFFFFFFFFFFFFFFFFFFFFDE
:10023000FFFFFFFFFFFFFFFFFFFFFFFFFFFFFFFFCE
:10024000FFFFFFFFFFFFFFFFFFFFFFFFFFFFFFFFBE
:10025000FFFFFFFFFFFFFFFFFFFFFFFFFFFFFFFFAE
:10026000FFFFFFFFFFFFFFFFFFFFFFFFFFFFFFFF9E
:10027000FFFFFFFFFFFFFFFFFFFFFFFFFFFFFFFF8E
:10028000FFFFFFFFFFFFFFFFFFFFFFFFFFFFFFFF7E
:10029000FFFFFFFFFFFFFFFFFFFFFFFFFFFFFFFF6E
:1002A000FFFFFFFFFFFFFFFFFFFFFFFFFFFFFFFF5E
:1002B000FFFFFFFFFFFFFFFFFFFFFFFFFFFFFFFF4E
:1002C000FFFFFFFFFFFFFFFFFFFFFFFFFFFFFFFF3E
:1002D000FFFFFFFFFFFFFFFFFFFFFFFFFFFFFFFF2E
:1002E000FFFFFFFFFFFFFFFFFFFFFFFFFFFFFFFF1E
:1002F000FFFFFFFFFFFFFFFFFFFFFFFFFFFFFFFF0E
:10030000FFFFFFFFFFFFFFFFFFFFFFFFFFFFFFFFFD
:10031000FFFFFFFFFFFFFFFFFFFFFFFFFFFFFFFFED
:10032000FFFFFFFFFFFFFFFFFFFFFFFFFFFFFFFFDD
:10033000FFFFFFFFFFFFFFFFFFFFFFFFFFFFFFFFCD
:10034000FFFFFFFFFFFFFFFFFFFFFFFFFFFFFFFFBD
:10035000FFFFFFFFFFFFFFFFFFFFFFFFFFFFFFFFAD
:10036000FFFFFFFFFFFFFFFFFFFFFFFFFFFFFFFF9D
:10037000FFFFFFFFFFFFFFFFFFFFFFFFFFFFFFFF8D
:10038000FFFFFFFFFFFFFFFFFFFFFFFFFFFFFFFF7D
:10039000FFFFFFFFFFFFFFFFFFFFFFFFFFFFFFFF6D
:1003A000FFFFFFFFFFFFFFFFFFFFFFFFFFFFFFFF5D
:1003B000FFFFFFFFFFFFFFFFFFFFFFFFFFFFFFFF4D
:1003C000FFFFFFFFFFFFFFFFFFFFFFFFFFFFFFFF3D
:1003D000FFFFFFFFFFFFFFFFFFFFFFFFFFFFFFFF2D
:1003E000FFFFFFFFFFFFFFFFFFFFFFFFFFFFFFFF1D
:1003F000FFFFFFFFFFFFFFFFFFFFFFFFFFFFFFFF0D
:10040000FFFFFFFFFFFFFFFFFFFFFFFFFEFFFFFFFD
:1004100010B5214CE36803F0C003C02B01D101F0FB
:10042000D7FE636903F0C003C02B01D101F0D0FEF9
:10043000E36903F0C003C02B01D101F0C9FE164CE3
:10044000636A03F0C003C02B01D101F0C1FEE36A6F
:1004500003F0C003C02B01D101F0BAFE636B03F0BF
:10046000C003C02B01D101F0B3FE0B4CE36B03F0D2
:10047000C003C02B01D101F0ABFE636C03F0C003DD
:10048000C02B01D101F0A4FE236803F0C003C02BF0
:1004900001D101F09DFE10BD00800340134941F2DF
:1004A0003C028B5843F080738B50114B47F6FF7220
:1004B0009A602A221A6024210022DA601A615961A6
:1004C0009A61DA611A625A629A62DA621A635A634C
:1004D0009A63D9631A6459649A64064B802283F83C
:1004E0002A234FF480625A60704700BF00700440B6
:1004F0000080034000E100E008B510B90D4B9861A1
:1005000008BD07EE900ADFED0C6AF8EE677A86EE1A
:10051000A77ADFED0A7AC7EE877A17EE900A01F024
:1005200019FD41EC100B00F037FB51EC100B02F001
:10053000A0F8E3E70080034000007F4300FEFF4691
:1005400007B503782E2B0ED0114B18689A889B792B
:100550000090ADF804208DF80630684601F05EFE8C
:1005600003B05DF804FB42788DF8003080788DF898
:1005700003300A238DF801208DF802008DF8042045
:100580008DF805008DF80630FFF7B6FFE5E700BFF0
:100590006C2700001FB5002310480293ADF80C3003
:1005A0008DF80E3001F026FA0D4801F023FA0D48BF
:1005B00001F034FE00F0D0F80028FBD00A4C2046B1
:1005C00001F018FA072102A801F030FE02A801A9E3
:1005D00001F000FE01A8FFF7B3FFF0E77427000069
:1005E00094270000B2270000C427000070B51E4BFE
:1005F0001A79DB79D5B29206DBB216D51B48028890
:1006000092B2B2F5007F10D219491A4E0C883355B8
:100610000388621C92B201339BB2B2F5007F038063
:1006200008BF00230A8008BF0B802B0615D512488F
:100630000D4B028892B28AB11049114D0C88621C90
:1006400092B22C5D0A80DC710388013B9BB2B2F54B
:10065000007F038001D100230B8070BDDA7802F0A7
:100660007F02DA70F9E700BF00B00640C800002042
:10067000CC000020D4000020CE000020D0000020BC
:10068000D4020020014B1A79DB79704700B0064094
:10069000154A30B5144613889BB2B3F5007FFAD2E1
:1006A000124A134D11884B1C9BB2B3F5007F138087
:1006B00004BF002313800F4A68540221C2F884103B
:1006C000BFF34F8FBFF36F8FBFF34F8FBFF36F8FAA
:1006D000238801339BB223805160074AD37843F0CB
:1006E0008003D37030BD00BFCE000020D2000020B8
:1006F000D402002000E100E000B00640124A10B52C
:10070000144613889BB2002BFBD0104A1048118866
:100710004B1C9BB2B3F5007F138004BF00231380F2
:100720000C4A405C0221C2F88410BFF34F8FBFF324
:100730006F8FBFF34F8FBFF36F8F2388013B9BB247
:100740002380516010BD00BFC8000020CA000020F7
:10075000D400002000E100E00D4B30B519880D4CAD
:100760000D4D0022238890B29BB2834201D8002015
:1007700030BD4B1C695C0A299BB207D0B3F5007FE2
:1007800002F1010214BF19460021EBE70120EFE757
:10079000CA000020C8000020D40000201C4A00230A
:1007A00013801C4A13801C4A13801C4A13801C4A65
:1007B00013801C4A41F2380113801B4B5A5842F4F3
:1007C00000625A5041F2340100015A5842F400626A
:1007D0005A5003F5804340F22332DA601A61134A1B
:1007E000134BB3FBF0F0C0F304231370C0B22C23FF
:1007F0005070D3700F4B802183F821130220586072
:100800000E20907183F8221304225A60704700BFB3
:10081000CE000020D2000020D0000020C800002020
:10082000CC000020CA0000200070044000B0064048
:10083000000E270700E100E00D4A416841F2440341
:1008400010B5D15041F20404037811591B0421F46E
:10085000403103F440330B431351437811689B0438
:1008600003F4402321F440210B43136010BD00BF6B
:100870000070044010B50B490A7B0B7B00F00304A9
:1008800003F0FC0323430B7302F00303834205D1FF
:10089000002010BD00BF013BFCD1F9E740F2DD5361
:1008A000F9E700BF0040064042780B4B02F01F0200
:1008B0001A715979827801F0E00102F01F020A43AF
:1008C0005A711A7901780A4342F040021A719A79F2
:1008D0005206FCD5704700BF00400640036849F649
:1008E0009702934230B526D9144DAB4294BF0125EF
:1008F0000225134A0179137803F0F0030B431149E1
:1009000013704B78447903F0C303234343EA051380
:100910004B701378857903F05F032B431370C37911
:100920009B01DBB293702CB113781A0602D58B7938
:100930009B07FCD530BD0025DBE700BF00127A0025
:10094000005006400040064038B5124B5A7802F07D
:10095000FD025A701A7802F03B0242F0800208460B
:100960001A709A7902F01C02082AFAD15A79094CB5
:1009700002F0BF025A712546A3799A06FCD4FFF70C
:1009800093FF637943F040036371AB799B06FCD519
:10099000002038BD0040064013B50C460192FFF719
:1009A00069FF01992046FFF7CFFF064B1A7802F046
:1009B0003F021A709A79C2F38102032AFAD1002009
:1009C00002B010BD004006400A4A08B5D2F888308F
:1009D00043F47003C2F88830074B4CF22052DA819E
:1009E0004DF62812DA814FF4E9721A8001F060FCAA
:1009F00008BD00BF00ED00E00020054010B5124C1E
:100A0000AA232370204601F04BFCE378802BFCD115
:100A10000E4A0F490F4841F24403D150FFF75EFFE1
:100A20000D4B0E4A1A600E4A1378002103F0C703DB
:100A3000137008460B4AFFF7AFFF0B48FFF7FCFEA9
:100A40000A4B0B4A1A6010BD00E0074000700440DA
:100A500000002301582700000400002000127A0043
:100A600000400640E627000060270000000000204C
:100A7000000E27070C4A136843F4007313600B4BF6
:100A80005A6822F4E06242F440725A609A6822F492
:100A9000E06242F440729A601A6922F4E06242F421
:100AA00040721A61704700BF3880044000900440D3
:100AB000F8B5304E3468002851D10020F8BD2368C5
:100AC000B3F1805F39D1D4E9013252B11168B1F18B
:100AD000805F06D1516803330B4463609368A36061
:100AE000F1E7AB4207DB9E4505DB20464FF00053A4
:100AF00040F80C3BE2E7634511D920464FF0005126
:100B0000656040F80C1B5B1B00EB8501A160033B9B
:100B10004FF0805440F82540C1E90132CEE762B978
:100B2000A0EB830000F090FF0130C6D04FF00053DF
:100B3000C4E9003504F10C00C0E72746A468002C86
:100B4000BDD10C3000F080FF431CB6D04FF00053F5
:100B5000C0E90035846057B930600C30AEE7C31C83
:100B60009D08002705F10A0C05F1030EE7E7B860C0
:100B7000F3E700BF0C00002010B5FFF799FF044613
:100B800028B90449172201F0E1FD01F0FFF92046E0
:100B900010BD00BFE9270000F8B555EC104B10EE72
:100BA000100A00220023294601F07BFD40B9C5F35D
:100BB0000A51A1F2FF37002F2B4606DA002D2ADA60
:100BC0000020002141EC100BF8BD332F26DC132F41
:100BD00013DDA1F213404FF0FF31C14001EA0406DA
:100BE00024EA010210461946002EEBD0002DE9DB65
:100BF0000C4B002201F024F9E4E70B4941FA07F716
:100C0000C5F3130101EA070621EA0701264361F350
:100C100013030246E6E703490020D3E720462946AE
:100C2000D0E700BF0000F03FFFFF0F0010B5174AEC
:100C30001749002001F06AFC4FF480734FF4806282
:100C40000021124801F05BFB124A1349012001F018
:100C50005DFC4FF480730F484FF48062002101F077
:100C60004EFB0E4B1B68022B0EDD0D4A0A4902207B
:100C700001F04CFCBDE8104009484FF480734FF47C
:100C80008062002101F03BBB10BD00BF14000020BA
:100C90000128000050000020032800006827000001
:100CA0008C0000202DE9F04F9FB0CDE90823299F4B
:100CB000002304460793DDF8A09019F8010B18B93A
:100CC00007981FB0BDE8F08F25281CD0079BDDE9F1
:100CD00008AB1946DA175E1C5145134673EB0B033C
:100CE0000A4608DAA368013B002BA36007DB2368F0
:100CF0005A1C226018700796CDF8A090DBE72146B9
:100D000001F064FBF7E74FF0000815E0BAF12D0F92
:100D10000FD0BAF1300F51D04FF0000B0A22AAF1D8
:100D20003003D9B2092926D815F801AB02FB0B3BD9
:100D3000F5E748F00108A9464D4615F801ABBAF1B0
:100D40002B0F32D0E2D8BAF1200F31D0BAF1230FF5
:100D500031D0BAF12A0FDFD13E4695F800A056F8FF
:100D600004BBBBF1000FBCBFCBF1000B88F0010846
:100D7000374609F102052BEAEB73BAF12E0F0C93FB
:100D800040F0A38095F800A0BAF12A0F19D00135E0
:100D90004FF000090A22AAF13003D9B2092917D865
:100DA00015F801AB02FB0939F5E748F00208C2E784
:100DB00048F00408BFE748F00808BCE748F40078AA
:100DC000B9E73E4695F801A056F8049B0235374630
:100DD000B9F1000F79DB48F01008BAF16C0F0DD1B2
:100DE00095F800A0BAF16C0F03BF95F801A048F088
:100DF00060080235013518BF48F02008BAF14C0FE1
:100E000002D0BAF1710F63D115F801AB48F0600858
:100E1000BAF1780F0CDCBAF1570F7BDCBAF1410F55
:100E200000F0118300F3C080BAF1000F00F01A81C6
:100E30000C9B5E1E18F00103049340F0F280079BA8
:100E400018F4007F14BF3022202298464FEAE3793D
:100E5000013E40F1CB800C9B079ABBF1000F03F1E0
:100E6000FF33CCBF1846002010440C9AC3F1000396
:100E7000A2F10202D8BF00239E18431C0793DDE9AC
:100E80000823C117904271EB03030ADAA268013A02
:100E9000002AA260C0F2C7802268511C216082F83B
:100EA00000A0049B7BB1079BB34698464FEAE379C9
:100EB0004FF0200ABBF1010B40F1BA80079B002ED6
:100EC000A8BF9B1907933E46D9E04FF0000984E77D
:100ED000BAF1680F0ED195F800A0BAF1680F03BF00
:100EE00095F801A048F480780235013518BF48F024
:100EF00080088DE7BAF16A0F04D148F0400815F870
:100F000001AB85E7BAF17A0FF9D0BAF1740F7FF42B
:100F10007FAFF4E7AAF15803202B89D801A252F839
:100F200023F000BFEB110000310E0000310E000075
:100F3000310E0000310E0000310E0000310E0000B5
:100F4000310E0000310E000047140000310E000089
:100F5000E30F0000DF130000B30F0000B30F000029
:100F6000B30F0000310E0000DF130000310E00004F
:100F7000310E0000310E0000310E0000691000003B
:100F800017130000AB120000310E0000310E0000FC
:100F9000A5100000310E00006B130000310E0000A0
:100FA000310E00004B1200002AF00203452B7FF4A3
:100FB0003FAFFE1D26F00706F6E8022318F0100FDB
:100FC000CDE914234FF000014FF000024FF0000371
:100FD000CDE9042308BF4FF0060948F480680846AD
:100FE0006CE13E4656F804AB374621E7DDE90801DF
:100FF000804579EB010308DAA16801390029A16075
:1010000008DB2168481C20600A7018F1010849F1CA
:1010100000091DE7104621460A9201F0D7F90A9A05
:10102000F3E7079829E72146504601F0CFF938E762
:10103000DDE90823904579EB030309DAA268013A58
:10104000002AA26009DB2268511C216082F800A0FE
:1010500018F1010849F100092CE72146202001F090
:10106000B5F9F5E7013D2EE718F0400F3B68079A08
:1010700007F1040607D01046D117C3E9000137462F
:10108000A946079E37E618F0200F01D01A60F6E750
:1010900018F4807F01D01A70F1E718F0800FF5D0B6
:1010A0001A80ECE73E46C24B56F804BBBBF1000F7A
:1010B00008BF9B46584601F041F918F0100F8246D0
:1010C00002D04845A8BFCA460C9BA3EB0A0718F0FC
:1010D0000103049312D1079B18F4007F4FEAE379D0
:1010E000984614BF302220223B46013B26D5079A62
:1010F00027EAE7731A44013F0792FF1A079B9846B5
:101100004FEAE3790023534535DB079BBAF1000F23
:10111000A8BF53440793049B002BB0D0079BBA464B
:1011200098464FEAE3794FF0200BBAF1010A42D515
:10113000079B002FA8BFDB190793A0E7DDE9080193
:10114000804579EB010108DAA16801390029A16025
:1011500008DB2168481C20600A7018F1010849F179
:101160000009C2E7104621460C930A9201F02EF9BD
:101170000C9B0A9AF1E7DDE90812884579EB020237
:101180000ADAA268013A002AA2600CDB2268511C2C
:1011900021601BF80310117018F1010803F101031D
:1011A00049F10009AFE71BF803000A93214601F05B
:1011B0000DF90A9BF0E7DDE90823904579EB03037D
:1011C00009DAA368013B002BA36009DB23685A1CE2
:1011D000226083F800B018F1010849F10009A4E782
:1011E0002146202001F0F2F8F5E718F0400F1BD05F
:1011F000FE1D26F00706F6E80223CDE9042318F0C9
:10120000800119D0BDF8101004910023059369499D
:10121000694818F0080F08BF084618F0100F01D0F1
:1012200028F40078654949E03E46002156F8042B31
:101230001046CDE90401E2E718F4807FE7D0049B73
:1012400003F0FF00CDE90401E1E718F0400F1BD0E7
:10125000FE1D26F00706F6E80223CDE9042318F068
:10126000800119D0BDF81010049100230593514955
:10127000534818F0080F08BF084618F0100F01D0A7
:1012800028F400784F4919E03E46002156F8042B17
:101290001046CDE90401E2E718F4807FE7D0049B13
:1012A00003F0FF00CDE90401E1E73E46002156F8D6
:1012B000042B1046CDE9040142494148079BDDE972
:1012C00008BCBBEB030B6CEBE37CCDE9109016AFD5
:1012D0004FF0FF30CDE90ABCCDE91200BC4600203A
:1012E0004FF0550E013020280CF801EBFAD118F41C
:1012F000826F04BF01201090BAF16E0F00F3AB8033
:10130000BAF1470F00F32981BAF1400F00F3B6801C
:101310004FF00009BCE018F0400F15D0FE1D26F07C
:101320000706F6E80223CDE9042318F0800113D064
:10133000BDF81010049100230593234818F0080FFE
:101340001C4908BF084666E03E46002156F8042BBB
:101350001046CDE90401E8E718F4807FEDD0049B46
:1013600003F0FF00CDE90401E7E718F0400F16D0C5
:10137000FE1D26F00706F6E80223CDE9042318F047
:10138000800123D0BDF8101004910023059318F0BC
:10139000100102D028F40078002106488EE73E466E
:1013A000002156F8042B1046CDE90401E7E700BF01
:1013B00005280000932700000C2800001A280000D0
:1013C0000F2800002B2800001228000018F4807F4E
:1013D000DDD0049B03F0FF00CDE90401D7E718F04E
:1013E000400F0BBF3E46FE1D56F8042B26F00706A5
:1013F00014BFF6E80223D31718F0800F13D012B2EF
:10140000D317002A73F1000112DA524263EB43034F
:10141000CDE90423BF4818F010013FF44FAF28F482
:10142000007800214AE718F4807FEAD052B2E7E75B
:1014300018F0020FCDE9042303D1B74818F0040FC8
:101440007EE7B648E7E718F0100F04BF48F0100831
:101450004FF00D09ADE5AAF16F0A4FF00009BAF19E
:10146000090F15D8DFE81AF0CF00B80014001400F7
:10147000140014003B0114001400B800AAF141004C
:101480004FF0010909FA00F919F0510940F02A81D9
:1014900018F480630D9300F0358100231093129BA4
:1014A000002BC4BF03F1FF331093139B002B03DD0C
:1014B000109A013B13441093109F119800F03EFFC7
:1014C0000C9B4F44DF1B3B1A049308F001030C9361
:1014D00040F2012318EA030F00F046810027BA46C4
:1014E0004FEAE77B119B5A1C11921B78002B40F0AE
:1014F00043810C9AA2B918F4007FDDF8108014BF64
:1015000030222022BA464FEAE77BB8F1010840F1C9
:101510004E81049A511E22EAE272891A04911744FC
:101520000D9A002A00F060814FF03008994500F3D1
:1015300073810C9B73B1DDF810A0B8464FEAE779D0
:101540004FF0200BBAF1010A40F10682049B002BF8
:10155000A8BFFF18079B3B44EEE5AAF158001128ED
:101560003FF6D6AE11283FF6D3AE01A353F820F0D4
:10157000E315000011130000111300001113000007
:1015800011130000111300001113000011130000CB
:1015900011130000E51600001113000011130000E4
:1015A000DB160000E5160000E5160000E516000059
:1015B00011130000DB160000049B03F00F0009F17B
:1015C0000109085C07F8010B1809059B40EA037044
:1015D0004FEA131CCDE9040CDDE904231343EBD1DE
:1015E00056E74FF00009F7E7049B03F0070130319D
:1015F00007F8011BD908059B41EA4371D808CDE9DA
:10160000041009F10109DDE904231343ECD13FE79C
:10161000049B049A5908059B4FEA530C41EAC37195
:10162000049B4FEA930E059B4EEA837E11EB0E015D
:101630004FEA93004CEB00004FEA111E4EEA007E89
:1016400011EB0E014FEA101C40EB0C004FEA112E7B
:101650004EEA006E11EB0E014FEA102C40EB0C002D
:101660004FEA114C4CEA004C11EB0C014FEA104EC2
:1016700040EB0E000918049B4FF0000C40EB0C00EF
:101680004FEAD10C13F1060B4CEA407C059B4FEA64
:10169000D00EACFB0A0143F100030AFB0E11BBEBB9
:1016A000000B63EB01004FEA1B1343EA007313EBDB
:1016B0000C0C4FEA101141EB0E0E30320CEB8C0388
:1016C000A2EB4302CDE904CE07F8012B09F1010991
:1016D000DDE9042313439BD1DAE64FF000094FF014
:1016E0000A0AF5E713AB039312AB029310AB019315
:1016F00011AB00932A9F434616AA14A95046B84737
:101700008146C5E6109B0D9AB3EB090348BF13460B
:10171000D1E600BF14280000162800001828000099
:10172000DDE90A128A457BEB020208DAA268013A77
:10173000002AA26011DB2268511C216017701AF187
:10174000010A4BF1000BA3EB0A02002AE8DA049A23
:1017500022EAE277DB1B0493C1E6214620200E93A8
:1017600000F034FE0E9BEAE7049B4FF0000A4FF0B6
:10177000000B013B2027E6E7DDE90A128A457BEBF7
:10178000020207F1010708DAA268013A002AA26002
:1017900008DB2268511C216013701AF1010A4BF119
:1017A000000B9FE62146184600F010FEF5E7DDE944
:1017B0000A0182457BEB010108DAA16801390029A1
:1017C000A16008DB2168481C20600A701AF1010A38
:1017D0004BF1000B99E6104621460F930E9200F054
:1017E000F5FDDDE90E23F1E7BA464FEAE77B4FF05E
:1017F0003008109B013B002B109375DABA464FEA74
:10180000E77B4B46002B03F1FF3800F38980B9F1E9
:10181000000FA8BF4F448CE616AABA46D05C3C28FD
:101820004FEAE77B33D03E2846D1139A013A002A8B
:10183000139231DBDDE90A128A457BEB020207F1E4
:10184000010709DAA268013A002AA2602DDB2268AA
:10185000511C216082F800801AF1010A4BF1000B43
:10186000E3E7DDE90A128A457BEB020207F1010793
:1018700009DAA268013A002AA2600FDB2268511C33
:10188000216082F800801AF1010A4BF1000B129AD4
:10189000013A002A1292E4DA013347E62146302069
:1018A0000D9300F093FD0D9BEDE7214630200D9345
:1018B00000F08CFD0D9BCFE7DDE90A128A457BEB3A
:1018C000020207F10107E7DAA268013A002AA260E2
:1018D00004DB2268511C21601070DDE721460D9366
:1018E00000F074FD0D9BD7E7DDE90A2392457BEB01
:1018F000030307F1010709DAA368013B002BA3608A
:1019000009DB23685A1C226083F800801AF1010A5F
:101910004BF1000B6DE72146302000F057FDF5E755
:10192000DDE90A2392457BEB03030BDAA36816AAD1
:10193000013B002B12F80800A36009DB23685A1C46
:10194000226018701AF1010A4BF1000B434659E767
:10195000214600F03BFDF5E7DDE90A23904579EBF0
:10196000030309DAA368013B002BA36009DB2368AA
:101970005A1C226083F800B018F1010849F10009EF
:10198000E0E52146202000F021FDF5E7F0B50C460A
:1019900095B016461F46054610B931BB012404AD6B
:1019A0003C22002105A800F0EFFC0A2308936FF009
:1019B000004307930E4B05950025621ECDE9017388
:1019C00000962B4605A8FFF76DF9079A013AAA423F
:1019D0000446079204DB059B1D70204615B0F0BD40
:1019E00005A9284600F0F2FCF7E74FF0FF34F4E7D2
:1019F000FB2200000FB41FB506AB012153F8042BE6
:101A0000039302A80192FFF7C1FF041E14DD611CBD
:101A100008460091FFF74CF8029068B1DDE900122A
:101A2000039BFFF7B3FF074B0299186D224600F0A6
:101A30008DFE029800F049FC204604B0BDE810403D
:101A400004B070471400002070B50B4D2B680BB923
:101A50000A4B2B6003302E6820F0030434442046E8
:101A600000F00AF910B92C60304670BD044B0C220E
:101A70001A604FF0FF36F7E708000020D40400207A
:101A8000100000202DE9F041D5685769EB0280462F
:101A90000E46144605D5384600F03AFE45F01005CE
:101AA000A061124B2B408BB1A169384600F042FE79
:101AB000002806DAE36843F08003E3604FF0FF306C
:101AC00011E025F4003525F01005E5603246414669
:101AD000384600F03BFE20F00041761AA1690E4422
:101AE000A6610028E6D1BDE8F08100BF1000020029
:101AF000F7B5044698B103B0BDE8F04000F099BDD9
:101B000007FB046000F095FD002818BF4FF0FF357B
:101B10000134019BA342F3DC284603B0F0BD034B24
:101B2000034E1B68019305463C27F2E76827000037
:101B3000140000202DE9F843C6683D4B33400446AD
:101B40000D4690461BB902273846BDE8F883D0F809
:101B50001490484600F0E2FD07460028F3D1B8F1A2
:101B6000010F2CD0B8F1020F2ED0B8F1000FEAD13E
:101B7000002DE8DBB00404D52368E26A9A4238BF3E
:101B8000E362A169A9420EDC2368E26A934238BF8E
:101B9000134622695818801AA84204DB206B01EB17
:101BA000000CAC4534DC0023C4E9013346F02006C8
:101BB000A56226F4032626F04006E660C4E7204628
:101BC00000F038F80544D3E7484600F0A1FDB0F135
:101BD000000CE26804DA42F08002E2600127B3E719
:101BE00023681846A3691946E36A98422CBF09186E
:101BF000C9180B4621699206A3EB010303D5A26A1B
:101C00009342B8BF13466345ACBFED186544AFE7D8
:101C10006D1AB10744BF281AA060F10744BF9B1A90
:101C2000EB1A154448BF6360256026F02006C0E724
:101C300003001000C3689A0705D10E4B21221A60D9
:101C40004FF0FF30704703F020021B0309D512B19B
:101C5000806A013870470368826900691344181A62
:101C6000F7E70AB1806A7047036882690069134424
:101C7000181A704710000020044B23B1984234BF5B
:101C80000020012070471846704700BFD414002080
:101C9000944693EA0102F0B50E4605469E4607D5E6
:101CA00003F100452B466246BDE8F04000F0C8B89D
:101CB0008B4203D8844509D38B4207D102F10042FD
:101CC00056408EEA020E2A4665469446C6F30A52EC
:101CD00040F2FF714FEA1E508A424FEA1657C0EB9E
:101CE000165400F09F80944200F09880C6F31302CF
:101CF000CEF313031F2C42F4801143F480134ED80B
:101D000023FA04F2891A00F12002D21B93402CFA24
:101D100004F41C432C1B38BF01F1FF311CFA02F301
:101D2000254603D05B42651E04B9013911F4C01F7A
:101D300053D1EA0FDB0F42EA410243EA450352EA7C
:101D400003046CD0BC1E510B23D0510C01BF190FE2
:101D500041EA02121B01043CD10C01BF990F41EA78
:101D600082029B00023C110D02BFD90F41EA4202E0
:101D700004F1FF344FEAD67108BF5B00B1EBD42FFA
:101D80004FF0000006BF02EB0451184606F0004178
:101D9000F0BD190E41EA02221B02083CD3E7352CA4
:101DA0001BD8203C23FA04F2AA1AC4F1200003FA3B
:101DB00000F338BF01F1FF312CFA04F45FEA0C6044
:101DC000154643EA040306D043F0FF035B42551E69
:101DD0001AB9013901E0002BF8D1CA0209D4013F38
:101DE0007A050FD0EA0F42EA4101DA0F42EA4505CF
:101DF0005B00002B21F480124FEA075405DB111918
:101E00002846C5E739051046C2E7013508BF01324B
:101E1000B3F1004F08BF25F00105F0E75CB921469A
:101E20002046B5E733034FF0000001D00349AFE788
:101E30000CB90249F4E73146E2E700BF0000F87F41
:101E40002DE9F0431D4695EA010F0E460346AE46C6
:101E5000174605D505F10043BDE8F043FFF718BF6D
:101E60008D4284BF2E468E4640F2FF7CC6F30A5157
:101E700084BF134607464FEA1E5061454FEA16528B
:101E8000C0EB16545CD08C4255D0C6F3130CCEF385
:101E900013011F2C4CF4801541F4801127D82030F9
:101EA000801A21FA04FC27FA04F4814021435B18CC
:101EB000654428BF013507FA00F1A8022BD501338C
:101EC00008BF013509B923F00203360D360506EBCC
:101ED0005506710011F5001F37BFED07013231467D
:101EE00045EA530024BF00201105BDE8F083352CDE
:101EF000E3D8203C21FA04F01B18C4F1200001FAB9
:101F000000F127FA04F428BF01352143380618BF31
:101F100041F0FF01D1E7002902F1FF3207DA013376
:101F200008BF0135B1F1004F08BF23F0010305EBF5
:101F300002511846D9E74CB906F000412046D4E7D3
:101F400032034FF0000001D00149CEE73146F0E7FF
:101F50000000F87FC31013F07F610AD0B1F17F6FEA
:101F60004FEA407243F0E04308D003F14841104685
:101F7000704703F0004300201946704752EA0332CD
:101F8000014A18BF1346F6E70000F87F1820014900
:101F9000ABBE70472600020008B5FEF726F908BD63
:101FA00008B5FEF722F908BD08B5FEF71EF908BD11
:101FB00008B5FEF71AF908BD08B5FEF716F908BD11
:101FC00008B5FEF712F908BD08B5FEF70EF908BD11
:101FD00008B5FEF70AF908BD08B5FEF706F908BD11
:101FE00008B5FEF702F908BD08B5FEF7FEF808BD12
:101FF00008B5FEF7FAF808BD08B5FEF7F6F808BD13
:1020000008B5FEF7F2F808BD08B5FEF7EEF808BD12
:1020100008B5FEF7EAF808BD08B5FEF7E6F808BD12
:1020200008B5FEF7E2F808BD08B5FEF7DEF808BD12
:1020300008B5FEF7DAF808BD08B5FEF7D6F808BD12
:1020400008B5FEF7D2F808BD08B5FEF7CEF808BD12
:1020500008B5FEF7CAF808BD08B5FEF7C6F808BD12
:1020600008B5FEF7C2F808BD08B5FEF7BEF808BD12
:1020700008B5FEF7BAF808BD08B5FEF7B6F808BD12
:1020800008B5FEF7B2F808BD08B5FEF7AEF808BD12
:1020900008B5FEF7AAF808BD08B5FEF7A6F808BD12
:1020A00008B5FEF7A2F808BD08B5FEF79EF808BD12
:1020B00008B5FEF79AF808BD08B5FEF796F808BD12
:1020C00008B5FEF792F808BD08B5FEF78EF808BD12
:1020D00008B5FEF78AF808BD08B5FEF786F808BD12
:1020E00008B5FEF782F808BD08B5FEF77EF808BD12
:1020F00008B5FEF77AF808BD08B5FEF776F808BD12
:1021000008B5FEF772F808BD08B5FEF76EF808BD11
:1021100008B5FEF76AF808BD08B5FEF766F808BD11
:1021200008B5FEF762F808BD08B5FEF75EF808BD11
:1021300008B5FEF75AF808BD08B5FEF756F808BD11
:1021400008B5FEF752F808BD08B5FEF74EF808BD11
:1021500008B5FEF74AF808BD08B5FEF746F808BD11
:1021600008B5FEF742F808BD08B5FEF73EF808BD11
:1021700008B5FEF73AF808BD08B5FEF736F808BD11
:1021800008B5FEF732F808BD08B5FEF72EF808BD11
:1021900008B5FEF72AF808BD08B5FEF726F808BD11
:1021A00008B5FEF722F808BD08B5FEF71EF808BD11
:1021B00008B5FEF71AF808BD08B5FEF716F808BD11
:1021C00008B5FEF712F808BD08B5FEF70EF808BD11
:1021D00000BE70470278C378934210B511D144789D
:1021E000027994420DD184784279944209D12E2B00
:1021F00005D10B7043784B7083788B7010BDFF2B2B
:10220000F7D0AA230B70F9E710B518B1441E14F8E3
:10221000010F00B910BDFEF73BFAF8E708B5FFF76C
:10222000F3FFBDE808400A20FEF732BAF8B50E46C3
:1022300005460124B4422F4607D2FEF75FFA0A286A
:1022400005F8010B03D100233B702046F8BD013493
:10225000A4B2EFE708B500F02FF800F02AF800F07C
:102260002AF8FEF71BF94FF4E130FEF797FAFEF774
:1022700091F9002008BD04207146084202D0EFF316
:10228000098001E0EFF3088081690A884BF6AB63AF
:102290009A4200D0FEE7023181612021016070473F
:1022A000437803F09F0343F06003437000207047BE
:1022B0007047FEF7A3BB7047FEF7DCBB08B5FEF71F
:1022C000B5FCBDE80840FFF7C5BFA8B14FF080538B
:1022D00040F80C3C50F8042C72B11368B3F1805FE5
:1022E0000AD150F8083C516803330B4440F8083CCD
:1022F000936840F8043CEDE770470020704770B5E4
:10230000C468A50708D0B2F5007F11D0B2F5806F80
:1023100004D0B2F5807F0BD0012008E000F1240149
:102320000123224301610160C361C260002070BDCE
:102330005E1E6FF07F45AE42F3D3EDE710B5421C51
:102340008307044616D1234654F8041BA1F101303B
:1023500020EA010010F0803FF5D011F0FF0F11D0FE
:1023600011F47F4F0CD011F47F0F14BF23460333B9
:10237000981A04E010F8013B002BE1D1801A10BD3F
:102380000233F5E70133F3E700F0A3B9C3688269CC
:1023900023F0200310B5C360836A9A4204460ED02E
:1023A00000F0E8F8E36823F4405323F0100343F00F
:1023B0001003E360A36AA3612369E3622360E36817
:1023C00023F4804323F04003E36010BDCB6823F483
:1023D000002270B50C46CA609906054602D5204613
:1023E000FFF7D4FFD4E902365A1C10DAB0050ED438
:1023F000C3F1FF2303F57F03FE33A360236846F494
:1024000090365A1CE66022601D70E8B270BD41F241
:102410008A023240022A07D0002346F08006A360D9
:10242000E6604FF0FF30F1E74AF210033340B3F5B6
:10243000004F0AD100212046FFF77CFBE368990694
:1024400002D52046FFF7A2FFE66846F4903316F463
:10245000706FE3600ED1606900F060F900B372053F
:102460001ED504F12403236123600123E36146F4B4
:102470009233E36013F4106F2168266926D0E36A73
:1024800099422CBFC6EB0101C6EB0301B9B9731C1D
:10249000E3622360E36923635A1EA2603570B4E7E8
:1024A0004FF48070FEF768FBE26820614FF48073A0
:1024B000E36146F494331A432060E260DAE722468F
:1024C0003046FFF7DFFA0028E1D0AAE74A1CEDB258
:1024D00022600D70E26A216891422CBFC6EB0101B7
:1024E000C6EB0201E26922635B0503D40A2D01D029
:1024F0008A4209DC0023E6622660A3602246304659
:10250000FFF7C0FA00288CD128467FE770B50D464A
:1025100006461046144600F056F82B78722B17D05A
:10252000772B18D0612B23D1082348F2020215F82B
:10253000011F2B2912D0622915D01B07E2606661AA
:1025400004D5022200212046FFF7F4FA204670BD90
:1025500000230122EBE704230222E8E742F0030212
:1025600043F00203E3E742F0040243F00103DEE735
:102570000024EBE738B501680569C36A0446C06802
:1025800020F40022E26000F08202022A02D04FF022
:10259000FF3038BD10F48030FBD0994238BF194667
:1025A0008D4208D1E368E562002023F48033256082
:1025B000A060E360EDE72246491B2846FFF762FA78
:1025C0000028EFD0E3E7F0B5C468A10789B005465D
:1025D00022D0220718D4D0E90467FFF789FA3846D9
:1025E00000F090F8230502D53046FFF76EFEA40DEB
:1025F000A40514F1A54F07D1296A2022684600F0EE
:102600009FF8684600F00BF83C2200212846FFF7AF
:10261000BBFE002009B0F0BD4FF0FF30FAE710B567
:102620000446FFF78BFE01462046BDE8104000F04F
:102630007BB8C36870B513F00306044611D09B063F
:1026400011D5856AFFF7A2FEE36823F44053E360E7
:102650002046FFF78FFF0022064629462046FFF757
:1026600069FA304670BD816905680D4401696D1ACB
:10267000EAE740F21E42A2EB1152FF2A06D8CB0233
:1026800043EA505040F00040D040704701F14040D4
:1026900000F58010B0F1804F4FF0FF3088BF002070
:1026A000704730B51D4640EA45048C4614434B0044
:1026B00054EA4C0109D0AC4509D1904207D113F539
:1026C000001F8CBF0020012030BD0120FCE700204E
:1026D000FAE7034613F0030F0ED101F0FF0141EAC0
:1026E000012141EA0141043A24BF43F8041BB2F13D
:1026F0000402F9D202F10402013A24BF03F8011BDB
:10270000FAE7704703B469460220ABBE02B07047D7
:1027100003B469460C20ABBE02B0704703B46946EF
:102720000920ABBE02B0704703B469460E20ABBEB1
:1027300002B0704703B469460A20ABBE02B07047CE
:102740000FB469460D20ABBE04B070470FB46946A4
:102750000520ABBE04B0704700127A0000040000F0
:10276000000000000000340103000000AAAAAAAA89
:10277000AAAA0A0074696E796B3232207761697493
:102780007320666F72206C696E6520666565642EC5
:102790002E2E0A0073656E64696E67206F6E207559
:1027A000617274312066696E69736865642E2E2EBD
:1027B0000A0054696E794B32322052656164792E79
:1027C0002E2E0A0074696E796B3232207265636551
:1027D00069766564206C696E652E2E2E0A000700EE
:1027E0000001000000000001062A2A2A205F43732E
:1027F00079735F616C6C6F63206661696C65640AF4
:102800000072007700286E756C6C2900305800301B
:10281000780030002D0020002B0030313233343569
:10282000363738394142434445460030313233343B
:0C28300035363738396162636465660034
:04283C000000400157
:040000030000019167
:00000001FF
